:100000000C942A000C9447000C9447000C94470071
:100010000C9447000C9447000C9447000C94470044
:100020000C9447000C9447000C9447000C94AE00CD
:100030000C9447000C9447000C9447000C94470024
:100040000C9447000C9447000C9447000C94470014
:100050000C94470011241FBECFE5D4E0DEBFCDBF16
:1000600011E0A8E6B1E001C01D92A739B107E1F7A0
:1000700011E0A0E6B0E0E6E5F6E102C005900D92E1
:10008000A836B107D9F70E94BE020C94290B0C9434
:10009000000010BC83E389B988E98AB986E880BD8D
:1000A00008955D9BFECF8CB908955F9BFECF8CB108
:1000B000089520E004C05D9BFECFECB92F5FFC01EA
:1000C000E20FF11DE081EE23B1F7089595988D9A26
:1000D0008FB581608FBD8EB589608EBD1ABC18BC8E
:1000E00008958FB58F778FBD08958FB580688FBDC8
:1000F00008958ABD882319F48FB58F7702C08FB514
:1001000080688FBD08958AB5089580E090E0FC0175
:10011000EF58FE4F108201968B309105C1F7109277
:100120006901089580E090E0FC01E358FE4F1082E1
:1001300001968B309105C1F7089520E030E0F90178
:10014000E358FE4F10828081F901EF58FE4F808303
:100150002F5F3F4F2B30310591F708951F920F927B
:100160000FB60F9211242F933F934F935F938F936A
:100170009F93EF93FF9380916801882311F08CB1D6
:1001800029C08CB18093710181E08093690120E0E6
:1001900030E041E050E009C087E220313807B9F093
:1001A0002F5F3F4FCA010197F1F75F9BF5CFE091B9
:1001B0006901F0E08CB1EF58FE4F808380916901B6
:1001C0008F5F80936901809169018B3070F381E0CA
:1001D00080936801FF91EF919F918F915F914F9173
:1001E0003F912F910F900FBE0F901F90189580E0B8
:1001F00090E008C0FC01E358FE4FE0815D9BFECF1C
:10020000ECB901968617B0F30895FC019FEF21E346
:100210000EC08081982780E097FF03C0990F922736
:1002200001C0990F8F5F8830B9F73196615066230E
:1002300081F7892F089584E680937D0180916C0178
:1002400090916D0190937E0180916C0190916D0170
:1002500080937F0180916E0190916F019093800156
:1002600080916E0190916F01809381018091950141
:1002700090919601909382018091950190919601C1
:10028000809383018AB58093840180916A01809371
:10029000850180917001809386018DE791E06AE08D
:1002A0000E940501809387010895882311F043E09F
:1002B00001C042E084B321E030E0922F042E01C05F
:1002C000990F0A94EAF7892B84BBE6EBF3E03197A8
:1002D000F1F784B39095982394BB82E890E001975E
:1002E000F1F783B3E4E3F3E03197F1F790E002C074
:1002F000959587954A95E2F782279327817008950F
:10030000382F662311F023E001C022E081E090E065
:10031000482F01C0440F2A95EAF7542F509520E04A
:10032000AEE6B0E064E070E0E8E7F0E030FF0BC07C
:1003300084B3842B84BBCB010197F1F784B385236D
:1003400084BBCF010AC084B3842B84BBCD01019749
:10035000F1F784B3852384BBCB010197F1F72F5FBD
:10036000283011F03695E2CF0895FF920F931F9336
:10037000CF93DF93882311F083E001C082E061E036
:1003800070E002C0660F771F8A95E2F7A62FB62F9E
:10039000B09520E030E040E050E004E010E08CE078
:1003A000F82EE1E0F0E0C4E6D0E084B38A2B84BB11
:1003B000C8010197F1F784B38B2384BB8F2D8A95F5
:1003C000F1F783B390E086239723892B61F4CF0163
:1003D000042E02C0880F991F0A94E2F78095909529
:1003E0002823392309C0CF01042E02C0880F991F8A
:1003F0000A94E2F7282B392BCE010197F1F74F5FD2
:100400005F4F4031510589F6C901DF91CF911F91AE
:100410000F91FF900895F89460916901615081E710
:1004200091E00E940501E0916901F0E0E059FE4F82
:100430009081891781F01092680180E090E0FC01C2
:10044000EF58FE4F108201968B309105C1F7109244
:1004500069017894089580917101893609F442C048
:100460008A3620F4873609F079C007C0803709F44E
:100470005EC0833709F072C015C080916901823077
:1004800009F06CC00E941B0180E090E0FC01E35881
:10049000FE4FE0815D9BFECFECB901968B3091055C
:1004A000A9F75CC080916901843009F057C02091A0
:1004B000720130917301922F80E0232F30E0282BBE
:1004C000392BC9018C509340895E934020F43093BE
:1004D000960120939501609195017091960180E0BD
:1004E00090E03AC0909169019230C1F586E780931F
:1004F0007D0181E080937E0180937F019093800154
:10050000809381018DE791E065E00E940501809371
:10051000820180E090E0FC01E358FE4FE0815D9BAA
:10052000FECFECB9019686309105A9F717C08091EE
:100530006901833099F480917201882321F08091C0
:100540007201813059F48091720180937001609141
:10055000700182E090E070E00E94070B1092680149
:1005600080E090E0FC01EF58FE4F108201968B3046
:100570009105C1F710926901789408954F925F92A6
:100580006F927F928F929F92AF92BF92CF92DF92A3
:10059000EF92FF920F931F93CF93DF9380E090E051
:1005A0000E94010B909396018093950182E090E068
:1005B0000E94F90A8093700110926D0110926C01F3
:1005C00010926F0110926E0120E030E0F901E358C3
:1005D000FE4F10828081F901EF58FE4F80832F5F1C
:1005E0003F4F2B30310591F720E030E040E050E004
:1005F0002093910130939201409393015093940181
:100600008DEC9CECACE4BEE380938D0190938E0165
:10061000A0938F01B09390012093890130938A01B8
:1006200040938B0150938C0185B3837F85BB84B34A
:10063000837F84BB0E94660010BC83E389B988E98C
:100640008AB986E880BD789401E044244A94542C09
:10065000B1E08B2E912C612CA5E07A2E01C000E038
:1006600012E0C2010197F1F71F5F809168018823B2
:1006700011F00E940B021332A1F710926A01C0E040
:10068000D0E08C2F0E945501813059F48CEC6C2FF6
:100690000E94800184E46C2F0E94800110926A0104
:1006A0000CC020916A01C4010C2E02C0880F991F52
:1006B0000A94E2F7282B20936A012196C230D105D3
:1006C00001F7013061F2C0E0D0E08C2F0E945501AB
:1006D000813009F04DC08CEC6C2F0E9480018EEBB4
:1006E0006C2F0E9480018C2F0E94B50197FD02C0E3
:1006F000E0E004C0909581959F4FE1E080FD03C04C
:1007000040E050E002C041E450E081FF02C04358A5
:100710005F4F82FF02C046505F4F83FF02C04C50C4
:100720005E4FF4E096958795FA95E1F79C0173E0AA
:10073000220F331F7A95E1F7880F991F280F391F71
:10074000CA0164E670E00E94AE0A620F731FE130D6
:1007500029F4C301861B970BBC0102C060507B4F7C
:10076000FE01EE0FFF1FE459FE4F718360830CC042
:1007700020916A01C4010C2E02C0880F991F0A94AF
:10078000E2F7282B20936A012196C230D10509F0A7
:100790009CCF809170018823E9F48FB58F778FBD4E
:1007A00080E00E94790080E090E0A0E0B0E08093DB
:1007B000910190939201A0939301B093940180933F
:1007C000890190938A01A0938B01B0938C011092C0
:1007D0006B0106C08AB5882319F08FB580688FBD7C
:1007E00080916A0180FD3BCF80917001813009F0DA
:1007F00036CF60916C0170916D01E0909501F090A1
:10080000960180E090E00E9440085B016C0100E0EE
:1008100010E0C801B7010E9440089B01AC01C6016D
:10082000B5010E9404066093890170938A01809348
:100830008B0190938C01E0909101F09092010091D6
:1008400093011091940160918D0170918E018091BE
:100850008F01909190012091890130918A014091FE
:100860008B0150918C010E9462069B01AC01C80172
:10087000B7010E94350660939101709392018093B5
:1008800093019093940160919101709192018091F4
:1008900093019091940120E030E04FE753E40E94EF
:1008A0005C07181664F480E090E0AFE7B3E480934F
:1008B000910190939201A0939301B0939401609160
:1008C000910170919201809193019091940120E0A7
:1008D00030E040E050E00E94BC07181664F080E071
:1008E00090E0A0E0B0E08093910190939201A093FA
:1008F0009301B09394016091910170919201809164
:100900009301909194010E948C0460936B018091FB
:100910006B010E947900A3CEEF92FF920F931F9379
:100920007B018C0120E030E040E05FE40E948C0716
:1009300088238CF0C801B70120E030E040E05FE49C
:100940000E9404060E94EC079B01AC01205030403D
:100950004040504806C0C801B7010E94EC079B0107
:10096000AC01B901CA011F910F91FF90EF9008955A
:10097000A0E0B0E0EEEBF4E00C94C20ADC012B0145
:10098000FA019C91923008F439C1EB0188818230E0
:1009900008F433C1943069F4843009F02FC1119602
:1009A0009C9111978981981709F428C1A0E6B0E0BD
:1009B00025C1843009F421C18230A9F4923009F0B4
:1009C0001DC19A01AD0188E0EA010990AE01E9017B
:1009D00009929E018150C1F7E201898111969C9193
:1009E0008923818308C1923009F407C112962D90A2
:1009F0003C901397EB018A819B811496AD90BD903A
:100A0000CD90DC901797EC80FD800E811F819101C5
:100A1000281B390BB90137FF04C066277727621BF3
:100A2000730B603271050CF061C0121613066CF581
:100A300037014801062E04C09694879477946794F2
:100A40000A94D2F721E030E040E050E004C0220FE9
:100A5000331F441F551F6A95D2F721503040404044
:100A600050402E213F2140235123211531054105BE
:100A7000510521F021E030E040E050E079018A01A9
:100A8000E628F728082919293CC0232BD1F1260E86
:100A9000371E35014601062E04C09694879477943C
:100AA00067940A94D2F721E030E040E050E004C0BF
:100AB000220F331F441F551F6A95D2F72150304033
:100AC000404050402A213B214C215D212115310518
:100AD0004105510521F021E030E040E050E05901AE
:100AE0006A01A628B728C828D9280BC08215930503
:100AF0002CF01C01AA24BB24650103C0EE24FF24B2
:100B0000870111969C91D20111968C91981709F446
:100B100045C0992339F0A80197012A193B094C09CE
:100B20005D0906C0A60195012E193F09400B510B26
:100B300057FD08C011823382228224833583468385
:100B400057831DC081E081833382228288279927C1
:100B5000DC01821B930BA40BB50B84839583A683C6
:100B6000B7830DC0220F331F441F551F24833583C5
:100B70004683578382819381019793838283248163
:100B8000358146815781DA01C9010197A109B1096F
:100B90008F5F9F4FAF4FBF4328F30BC091833382CA
:100BA0002282EA0CFB1C0C1D1D1DE482F5820683CB
:100BB000178383E08083248135814681578157FFE5
:100BC0001AC0C901AA2797FDA095BA2F817090700D
:100BD000A070B0705695479537952795822B932B2B
:100BE000A42BB52B84839583A683B78382819381BD
:100BF000019693838283DF0101C0D201CD01CDB77D
:100C0000DEB7E2E10C94DE0AA0E2B0E0EAE0F6E052
:100C10000C94CE0A69837A838B839C832D833E83D5
:100C20004F835887E9E0EE2EF12CEC0EFD1ECE012D
:100C30000196B7010E94DD098E010F5E1F4FCE01A4
:100C40000596B8010E94DD098A8991E089278A8B7F
:100C5000C701B801AE01475E5F4F0E94B8040E9411
:100C60000809A096E6E00C94EA0AA0E2B0E0EBE303
:100C7000F6E00C94CE0A69837A838B839C832D8360
:100C80003E834F835887F9E0EF2EF12CEC0EFD1ECA
:100C9000CE010196B7010E94DD098E010F5E1F4F44
:100CA000CE010596B8010E94DD09C701B801AE0169
:100CB000475E5F4F0E94B8040E940809A096E6E0D4
:100CC0000C94EA0AA0E2B0E0E8E6F6E00C94C20A6E
:100CD00069837A838B839C832D833E834F835887DC
:100CE000CE010196BE01675F7F4F0E94DD09CE01F4
:100CF0000596BE016F5E7F4F0E94DD099985923097
:100D000088F089898230C8F0943019F4823051F427
:100D100004C0843029F4923081F480E690E0C6C0AB
:100D2000923049F420E09A858A89981321E02A8735
:100D3000CE010996BBC0823049F420E09A858A89A9
:100D4000981321E02A8BCE014196B0C02D843E84B9
:100D50004F8458886D887E888F88988CEE24FF2475
:100D60008701AA24BB24650140E050E060E070E008
:100D7000E0E0F0E0C10181709070892BE9F0E60CB1
:100D8000F71C081D191D9A01AB012A0D3B1D4C1DB6
:100D90005D1D80E090E0A0E0B0E0E614F7040805F7
:100DA000190520F481E090E0A0E0B0E0BA01A901CB
:100DB000480F591F6A1F7B1FAA0CBB1CCC1CDD1CD3
:100DC00097FE08C081E090E0A0E0B0E0A82AB92A30
:100DD000CA2ADB2A3196E032F10549F0660C771C0D
:100DE000881C991C5694479437942794C3CFFA854E
:100DF000EA892B893C898B859C85280F391F2E5FBA
:100E00003F4F17C0CA0181709070892B61F0169511
:100E10000795F794E79480E090E0A0E0B0E8E82A36
:100E2000F92A0A2B1B2B76956795579547952F5FC7
:100E30003F4F77FDE7CF0CC0440F551F661F771F4C
:100E400017FD4160EE0CFF1C001F111F21503040A8
:100E5000403090E0590790E0690790E4790760F32B
:100E60002B8F3C8FDB01CA018F779070A070B07020
:100E700080349105A105B10561F447FD0AC0E11474
:100E8000F1040105110529F0405C5F4F6F4F7F4F62
:100E900040781A8EFE1711F081E08A8F4D8F5E8F99
:100EA0006F8F78A383E0898FCE0149960E9408094D
:100EB000A096E2E10C94DE0AA8E1B0E0E2E6F7E0F9
:100EC0000C94CE0A69837A838B839C832D833E8323
:100ED0004F83588789E0E82EF12CEC0EFD1ECE01E1
:100EE0000196B7010E94DD098E010F5E1F4FCE01F2
:100EF0000596B8010E94DD098985823040F0898914
:100F0000823028F0C701B8010E94550A01C08FEF56
:100F10006896E6E00C94EA0AA8E1B0E0E2E9F7E0BE
:100F20000C94CE0A69837A838B839C832D833E83C2
:100F30004F83588789E0E82EF12CEC0EFD1ECE0180
:100F40000196B7010E94DD098E010F5E1F4FCE0191
:100F50000596B8010E94DD098985823040F08989B3
:100F6000823028F0C701B8010E94550A01C08FEFF6
:100F70006896E6E00C94EA0AA8E1B0E0E2ECF7E05B
:100F80000C94CE0A69837A838B839C832D833E8362
:100F90004F83588789E0E82EF12CEC0EFD1ECE0120
:100FA0000196B7010E94DD098E010F5E1F4FCE0131
:100FB0000596B8010E94DD098985823040F0898953
:100FC000823028F0C701B8010E94550A01C081E0B3
:100FD0006896E6E00C94EA0AACE0B0E0E2EFF7E0F5
:100FE0000C94D20A69837A838B839C83CE01019609
:100FF000BE016B5F7F4F0E94DD098D81823061F100
:10100000823050F1843021F48E81882351F12EC03A
:101010002F81388537FD20C06E812F3131051CF0BE
:101020006623F9F023C08EE190E0821B930B2985A3
:101030003A854B855C8504C056954795379527952D
:101040008A95D2F76623B1F0509540953095219559
:101050003F4F4F4F5F4F0EC020E030E040E050E088
:1010600009C02FEF3FEF4FEF5FE704C020E030E013
:1010700040E050E8B901CA012C96E2E00C94EE0A77
:10108000A8E0B0E0E6E4F8E00C94CA0A7B018C0129
:10109000611571058105910519F482E0898360C0AD
:1010A00083E089838EE1C82ED12CDC82CB82ED8255
:1010B000FE820F831887C801B7010E94B908FC019E
:1010C0003197F7FF3BC0222733272E1B3F0B5701D9
:1010D0006801022E04C0D694C794B794A7940A94CA
:1010E000D2F740E050E060E070E081E090E0A0E006
:1010F000B0E004C0880F991FAA1FBB1F2A95D2F722
:101100000197A109B1098E219F21A023B123009746
:10111000A105B10521F041E050E060E070E04A290E
:101120005B296C297D294D835E836F8378878EE1EF
:1011300090E08E1B9F0B9C838B8312C0309781F0B5
:101140000E2E04C0EE0CFF1C001F111F0A94D2F7D4
:10115000ED82FE820F831887CE1ADF0ADC82CB82F3
:101160001A82CE0101960E9408092896EAE00C94A2
:10117000E60AEF92FF920F931F937B018C0180E0B0
:10118000E81680E0F80681E0080780E0180788F498
:101190008FEFE816F1040105110531F028F088E021
:1011A00090E0A0E0B0E017C080E090E0A0E0B0E008
:1011B00012C080E0E81680E0F80680E0080781E0D1
:1011C000180728F088E190E0A0E0B0E004C080E1DA
:1011D00090E0A0E0B0E020E230E040E050E0281BEA
:1011E000390B4A0B5B0B04C016950795F794E794EF
:1011F0008A95D2F7F701E859FF4F8081281B310902
:1012000041095109C9011F910F91FF90EF90089575
:10121000DF92EF92FF920F931F93FC01E480F58021
:1012200006811781D1808081823048F480E090E08F
:10123000A0E1B0E0E82AF92A0A2B1B2BA5C08430D4
:1012400009F49FC0823021F4EE24FF24870105C0F9
:10125000E114F1040105110519F4E0E0F0E096C095
:10126000628173819FEF623879070CF05BC022E8DE
:101270003FEF261B370B2A3131052CF020E030E000
:1012800040E050E02AC0B801A701022E04C07695C4
:101290006795579547950A94D2F781E090E0A0E0D2
:1012A000B0E004C0880F991FAA1FBB1F2A95D2F770
:1012B0000197A109B1098E219F21A023B123009795
:1012C000A105B10521F081E090E0A0E0B0E09A0135
:1012D000AB01282B392B4A2B5B2BDA01C9018F7705
:1012E0009070A070B07080349105A105B10539F4FB
:1012F00027FF09C0205C3F4F4F4F5F4F04C0215C68
:101300003F4F4F4F5F4FE0E0F0E02030A0E03A0762
:10131000A0E04A07A0E45A0710F0E1E0F0E079010C
:101320008A0127C06038710564F5FB01E158FF4F61
:10133000D801C7018F779070A070B070803491058C
:10134000A105B10539F4E7FE0DC080E490E0A0E00E
:10135000B0E004C08FE390E0A0E0B0E0E80EF91E3A
:101360000A1F1B1F17FF05C016950795F794E794F2
:10137000319687E016950795F794E7948A95D1F70B
:1013800005C0EE24FF248701EFEFF0E06E2F679594
:1013900066276795902F9F77D794DD24D7948E2F5B
:1013A0008695492F462B582F5D29B701CA011F91F9
:1013B0000F91FF90EF90DF900895FC01DB014081D9
:1013C00051812281622F6F7770E0221F2227221F16
:1013D0009381892F880F822B282F30E0991F99271E
:1013E000991F11969C93119721153105A9F5411567
:1013F00051056105710511F482E037C082E89FEF65
:1014000013969C938E9312979A01AB0167E0220F7B
:10141000331F441F551F6A95D1F783E08C930DC08D
:10142000220F331F441F551F12968D919C911397C5
:10143000019713969C938E931297203080E0380783
:1014400080E0480780E4580758F314962D933D93A5
:101450004D935C93179708952F3F310579F441150B
:1014600051056105710519F484E08C93089564FFBA
:1014700003C081E08C9312C01C9210C02F573040E3
:1014800013963C932E93129783E08C9387E0440F3E
:10149000551F661F771F8A95D1F7706414964D9378
:1014A0005D936D937C93179708951F93DC01FB0167
:1014B0009C91923008F447C08081823008F443C088
:1014C000943051F411961C91843099F58181682FE4
:1014D00070E0611B71093FC0843021F0923031F41B
:1014E0008230B9F18181882389F12DC011961C9138
:1014F00011978230F1F081811817D9F412962D914D
:101500003C911397828193818217930794F0281757
:101510003907BCF014968D919D910D90BC91A02D32
:101520002481358146815781281739074A075B078F
:1015300018F4112341F00AC082179307A407B507D6
:1015400040F4112319F061E070E005C06FEF7FEF08
:1015500002C060E070E0CB011F910895AA1BBB1B85
:1015600051E107C0AA1FBB1FA617B70710F0A61BA3
:10157000B70B881F991F5A95A9F780959095BC01C4
:10158000CD0108952F923F924F925F926F927F927A
:101590008F929F92AF92BF92CF92DF92EF92FF9283
:1015A0000F931F93CF93DF93CDB7DEB7CA1BDB0B2F
:1015B0000FB6F894DEBF0FBECDBF09942A883988D4
:1015C00048885F846E847D848C849B84AA84B984DB
:1015D000C884DF80EE80FD800C811B81AA81B981E7
:1015E000CE0FD11D0FB6F894DEBF0FBECDBFED01FB
:1015F0000895E199FECF9FBB8EBBE09A99278DB3EA
:101600000895A8E1B0E042E050E00C940E0B0E9477
:101610001C0B272F0C941D0BDC01CB01FC01E19965
:10162000FECF06C0FFBBEEBBE09A31960DB20D9225
:1016300041505040B8F70895262FE199FECF9FBB47
:101640008EBB2DBB0FB6F894E29AE19A0FBE0196BD
:061650000895F894FFCF9D
:101656000000000000000000000102020303030373
:10166600040404040404040405050505050505052C
:10167600050505050505050506060606060606060C
:1016860006060606060606060606060606060606F4
:1016960006060606060606060707070707070707DC
:1016A60007070707070707070707070707070707C4
:1016B60007070707070707070707070707070707B4
:1016C60007070707070707070707070707070707A4
:1016D600070707070707070708080808080808088C
:1016E6000808080808080808080808080808080874
:1016F6000808080808080808080808080808080864
:101706000808080808080808080808080808080853
:101716000808080808080808080808080808080843
:101726000808080808080808080808080808080833
:101736000808080808080808080808080808080823
:101746000808080808080808080808080808080813
:0817560008080808080808084B
:00000001FF
