:100000000C942A000C9447000C9447000C94470071
:100010000C9447000C9447000C9447000C94470044
:100020000C9447000C9447000C9447000C949B00E0
:100030000C9447000C9447000C9447000C94470024
:100040000C9447000C9447000C9447000C94470014
:100050000C94470011241FBECFE5D4E0DEBFCDBF16
:1000600011E0A0E6B0E0E4EFF7E102C005900D92E8
:10007000A836B107D9F711E0A8E6B1E001C01D929A
:10008000A439B107E1F70E9447030C94F80B0C94D4
:1000900000009C01E199FECF3FBB2EBBE09A8DB3DF
:1000A00008959C01E199FECF3FBB2EBB6DBB0FB6FF
:1000B000F894E29AE19A0FBE089510BC83E389B9DF
:1000C00088E98AB986E880BD08955D9BFECF8CB92A
:1000D00008955F9BFECF8CB1089520E004C05D9B26
:1000E000FECFECB92F5FFC01E20FF11DE081EE23A2
:1000F000B1F70895EFE7F1E0119281E0EA38F807EF
:10010000D9F7109269010895EDE6F1E0119281E0CE
:10011000E837F807D9F7089580E090E0FC01E3594B
:10012000FE4F1082FC01E158FE4F108201968B3089
:100130009105A1F708951F920F920FB60F92112407
:100140002F933F934F936F937F938F939F93EF934F
:10015000FF9380916801882311F08CB125C08CB188
:1001600080937F0181E08093690120E030E041E0ED
:1001700061E070E009C087E22031380781F02F5F2D
:100180003F4FCB010197F1F75F9BF5CF8CB1E42F87
:10019000F0E0E158FE4F80834F5F4B30A8F340936F
:1001A000690181E080936801FF91EF919F918F91A8
:1001B0007F916F914F913F912F910F900FBE0F90B4
:1001C0001F901895EDE6F1E070E06E0F7F1F05C0FF
:1001D00080815D9BFECF8CB93196E617F707C1F79A
:1001E0000895FC019FEF21E30EC08081982780E0F5
:1001F00097FF03C0990F922701C0990F8F5F883036
:10020000B9F731966150662381F7892F089584E606
:1002100080936D0190917B0180917C0180936E01B0
:1002200090936F0190917D0180917E018093700188
:10023000909371019091790180917A01809372017C
:100240009093730180916C018093740180916A0195
:100250008093750180918B01809376019FEFEDE68D
:10026000F1E021E30DC08081982780E097FF03C073
:10027000990F922701C0990F8F5F8830B9F7319697
:1002800081E0E737F80779F790830895882311F024
:1002900043E001C042E084B321E030E0922F042E1D
:1002A00001C0990F0A94EAF7892B84BBE8EEF3E0CA
:1002B0003197F1F784B39095982394BB85ED8A9597
:1002C000F1F783B3E8E4F3E03197F1F790E002C08F
:1002D000959587954A95E2F782279327817008952F
:1002E000482F662311F023E001C022E081E090E076
:1002F000382F01C0330F2A95EAF7532F5095242F3A
:1003000090E0E0EA75E16AE14AE920FF0BC084B3BE
:10031000832B84BB862F8A95F1F784B3852384BB16
:10032000842F0AC084B3832B84BB8E2F8A95F1F768
:1003300084B3852384BB872F8A95F1F79F5F98301C
:1003400011F02695E2CF0895FF920F931F93882313
:1003500011F083E001C082E061E070E002C0660F4E
:10036000771F8A95E2F7A62FB62FB09520E030E0F0
:1003700040E050E085E1F82E00E2E1E0F0E018EA2C
:1003800084B38A2B84BB8F2D8A95F1F784B38B239A
:1003900084BB802F8A95F1F783B390E0862397235F
:1003A000892B61F4CF01042E02C0880F991F0A9493
:1003B000E2F7809590952823392309C0CF01042EB8
:1003C00002C0880F991F0A94E2F7282B392B812F3E
:1003D0008A95F1F74F5F5F4F4031510589F6C901AA
:1003E0001F910F91FF9008951F9310926B0110922F
:1003F0006A0169E470E080E090E00E94820B9C0159
:1004000090937A0180937901E199FECF82E090E0A8
:100410009FBB8EBBE09A4DB340938B012C50334071
:10042000295E334030F082EC96E090937A0180931D
:100430007901423010F010928B0110927C011092E1
:100440007B0110927E0110927D0180E090E0FC0122
:10045000E359FE4F1082FC01E158FE4F10820196D5
:100460008B309105A1F780E090E0A0E0B0E08093B0
:10047000900190939101A0939201B0939301809386
:100480008C0190938D01A0938E01B0938F0185B361
:10049000837F85BB84B3837F84BB95988D9A10BC82
:1004A00083E389B988E98AB986E880BD10E0812FA5
:1004B0000E9446018130A9F4612F8CEC0E947001EA
:1004C000612F8EE40E947001612F80E00E94700114
:1004D000612F80E00E947001612F8FE70E94700100
:1004E00009C0112339F480916B01816080936B0105
:1004F00080936A011F5F1230D1F678941F9108959E
:10050000F8944091690141509FEFEFE7F1E0242F0B
:1005100030E04F5F2E0F3F1F51E30DC080819827C1
:1005200080E097FF03C0990F952701C0990F8F5F57
:100530008830B9F73196E217F30781F7E42FF0E03E
:10054000E258FE4F8081981769F010926801EFE73A
:10055000F1E0119241E0EA38F407D9F7109269010D
:100560007894089580917F01893609F43EC08A36D7
:1005700020F4873609F07EC007C0803709F466C0D2
:10058000833709F077C011C0423009F073C00E9470
:100590000701EDE6F1E080815D9BFECF8CB93196DD
:1005A00081E0E837F807B9F765C0443009F062C068
:1005B0009091800180E02091810130E0282B392B3F
:1005C000C9018C509340895E934020F430937A01A6
:1005D000209379016091790170917A0141E550E0B1
:1005E00080E090E00E94980B45C0423009F042C084
:1005F00086E780936D0181E080936E0180936F01A7
:1006000040937001809371019FEFEDE6F1E021E3EB
:100610000DC08081982780E097FF03C0990F922733
:1006200001C0990F8F5F8830B9F7319681E0E237CA
:10063000F80779F79083359780815D9BFECF8CB961
:10064000319641E0E337F407B9F714C0433091F431
:1006500020918001223070F420938B01E199FECF2C
:1006600082E090E09FBB8EBB2DBB0FB6F894E29A60
:10067000E19A0FBE10926801EFE7F1E0119281E07C
:10068000EA38F807D9F710926901789408952F9203
:100690003F924F925F926F927F928F929F92AF9212
:1006A000BF92CF92DF92EF92FF920F931F93CF935F
:1006B000DF930F2EF0E02F2EF0E03F2EF0E04F2ED4
:1006C000F0E05F2EF02DF8940E94F401B1C1109279
:1006D0006A0180916801882311F00E94800210E075
:1006E000812F0E944601813049F4612F8CEC0E94D9
:1006F0007001612F84E40E94700107C0112329F466
:1007000080916A01816080936A011F5F123041F716
:1007100090918B01992399F410926C012092900191
:1007200030929101409292015092930120928C015B
:1007300030928D0140928E0150928F019598809158
:100740006A01882309F010C1913009F00DC1609150
:100750007B0170917C0180E090E00E9414097B0194
:100760008C016091790170917A0180E090E00E94A3
:1007700014099B01AC01C801B7010E94A80660934F
:100780008C0170938D0180938E0190938F012AE0EC
:1007900037ED43E25DE30E9406072091900130911E
:1007A000910140919201509193010E94D90660936A
:1007B000900170939101809392019093930120E0B6
:1007C00030E04FE754E40E940008181664F480E01B
:1007D00090E0AFE7B4E48093900190939101A093EF
:1007E0009201B093930120E030E040E050E060914E
:1007F00090017091910180919201909193010E94DA
:100800009008181644F02092900130929101409285
:1008100092015092930160909001709091018090AC
:1008200092019090930120E030E040E050E0C4015C
:10083000B3010E94000818160CF4959A20E030E0ED
:100840004AEF54E4C401B3010E9406077B018C0106
:1008500020E030E040E85FE30E94600888231CF459
:1008600061E070E023C020E03FEF4FE757E4C801AC
:10087000B7010E9400081816ACF420E030E040E216
:1008800051E4C401B3010E9406070E94300506C06E
:1008900088EC90E00197F1F76150704061157105A7
:1008A000B9F707C0C801B7010E943005CB01019715
:1008B000F1F7C401B3010E9430056C5F734009F089
:1008C0009598A401930160E070E08FE794E40E94A2
:1008D000A8065B016C0120E030E04AEF54E40E947E
:1008E00006077B018C0120E030E040E85FE30E94D6
:1008F000600888231CF461E070E023C020E03FEF33
:100900004FE757E4C801B7010E9400081816ACF47D
:1009100020E030E040E251E4C601B5010E94060744
:100920000E94300506C088EC90E00197F1F7615015
:10093000704061157105B9F707C0C801B7010E9481
:100940003005CB010197F1F720E030E040E85EE3AD
:10095000C401B3010E9406070E94300560936C0138
:10096000CBE7D1E010E009C080E098E2E8ECF0E0ED
:100970003197F1F70197D1F7F3CF812F0E9446010C
:10098000813009F049C0612F8CEC0E947001612F09
:100990008EEB0E947001812F0E94A40197FD02C07E
:1009A000E0E004C0909581959F4FE1E080FD03C099
:1009B00040E050E002C041E450E081FF02C04358F3
:1009C0005F4F82FF02C046505F4F83FF02C04C5012
:1009D0005E4FF4E096958795FA95E1F79C0173E0F8
:1009E000220F331F7A95E1F7880F991F280F391FBF
:1009F000CA0164E670E00E94AD0B620F731FE13024
:100A000031F480E095E0861B970BBC0102C060507A
:100A10007B4F7983688307C0112329F480916A0191
:100A2000816080936A011F5F2296123009F0A5CF82
:100A300080916B01882309F44ACE10E01F5F88ED96
:100A400097E2E8ECF0E03197F1F70197D1F7809168
:100A50006801882311F00E9480021C3379F733CE9D
:100A6000EF92FF920F931F937B018C0120E030E007
:100A700040E05FE40E94300888238CF020E030E002
:100A800040E05FE4C801B7010E94A8060E94C008C8
:100A90009B01AC01205030404040504806C0C80186
:100AA000B7010E94C0089B01AC01B901CA011F91A6
:100AB0000F91FF90EF900895A0E0B0E0E2E6F5E03E
:100AC0000C94C10BDC012B01FA019C91923008F4CB
:100AD00039C1EB018881823008F433C1943069F464
:100AE000843009F02FC111969C9111978981981734
:100AF00009F428C1A0E6B0E025C1843009F421C181
:100B00008230A9F4923009F01DC19A01AD0188E04C
:100B1000EA010990AE01E90109929E018150C1F7F5
:100B2000E201898111969C918923818308C19230C9
:100B300009F407C112962D903C901397EB018A811E
:100B40009B811496AD90BD90CD90DC901797EC8072
:100B5000FD800E811F819101281B390BB90137FFE0
:100B600004C066277727621B730B603271050CF097
:100B700061C0121613066CF537014801062E04C039
:100B800096948794779467940A94D2F721E030E0A2
:100B900040E050E004C0220F331F441F551F6A95E8
:100BA000D2F721503040404050402E213F21402379
:100BB0005123211531054105510521F021E030E097
:100BC00040E050E079018A01E628F7280829192930
:100BD0003CC0232BD1F1260E371E35014601062ECF
:100BE00004C096948794779467940A94D2F721E08E
:100BF00030E040E050E004C0220F331F441F551F77
:100C00006A95D2F721503040404050402A213B2184
:100C10004C215D21211531054105510521F021E0CF
:100C200030E040E050E059016A01A628B728C82802
:100C3000D9280BC0821593052CF01C01AA24BB24D3
:100C4000650103C0EE24FF24870111969C91D20117
:100C500011968C91981709F445C0992339F0A80191
:100C600097012A193B094C095D0906C0A6019501A7
:100C70002E193F09400B510B57FD08C011823382DA
:100C8000228224833583468357831DC081E081837C
:100C90003382228288279927DC01821B930BA40BC5
:100CA000B50B84839583A683B7830DC0220F331FB2
:100CB000441F551F24833583468357838281938144
:100CC0000197938382832481358146815781DA019C
:100CD000C9010197A109B1098F5F9F4FAF4FBF4372
:100CE00028F30BC0918333822282EA0CFB1C0C1D7B
:100CF0001D1DE482F5820683178383E080832481AF
:100D000035814681578157FF1AC0C901AA2797FD2F
:100D1000A095BA2F81709070A070B07056954795CD
:100D200037952795822B932BA42BB52B8483958302
:100D3000A683B78382819381019693838283DF01A7
:100D400001C0D201CD01CDB7DEB7E2E10C94DD0BDD
:100D5000A0E2B0E0EEEAF6E00C94CD0B69837A8372
:100D60008B839C832D833E834F835887E9E0EE2E4F
:100D7000F12CEC0EFD1EB701CE0101960E94B10AC6
:100D80008E010F5E1F4FB801CE0105960E94B10A79
:100D90008A8991E089278A8BAE01475E5F4FB8014F
:100DA000C7010E945C050E94DC09A096E6E00C9455
:100DB000E90BA0E2B0E0EFEDF6E00C94CD0B698317
:100DC0007A838B839C832D833E834F835887F9E0FE
:100DD000EF2EF12CEC0EFD1EB701CE0101960E9404
:100DE000B10A8E010F5E1F4FB801CE0105960E9419
:100DF000B10AAE01475E5F4FB801C7010E945C05B2
:100E00000E94DC09A096E6E00C94E90BA0E2B0E0B9
:100E1000ECE0F7E00C94C10B69837A838B839C83AD
:100E20002D833E834F835887BE01675F7F4FCE017E
:100E300001960E94B10ABE016F5E7F4FCE010596FA
:100E40000E94B10A9985923088F089898230C8F071
:100E5000943019F4823051F404C0843029F4923073
:100E600081F480E690E0C6C0923049F420E09A8593
:100E70008A89981321E02A87CE010996BBC0823067
:100E800049F420E09A858A89981321E02A8BCE01C3
:100E90004196B0C02D843E844F8458886D887E88EA
:100EA0008F88988CEE24FF248701AA24BB24650137
:100EB00040E050E060E070E0E0E0F0E0C10181700F
:100EC0009070892BE9F0E60CF71C081D191D9A019A
:100ED000AB012A0D3B1D4C1D5D1D80E090E0A0E0A4
:100EE000B0E0E614F7040805190520F481E090E06D
:100EF000A0E0B0E0BA01A901480F591F6A1F7B1F8B
:100F0000AA0CBB1CCC1CDD1C97FE08C081E090E045
:100F1000A0E0B0E0A82AB92ACA2ADB2A3196E0323A
:100F2000F10549F0660C771C881C991C569447946F
:100F300037942794C3CFFA85EA892B893C898B851E
:100F40009C85280F391F2E5F3F4F17C0CA01817043
:100F50009070892B61F016950795F794E79480E0DF
:100F600090E0A0E0B0E8E82AF92A0A2B1B2B76953E
:100F70006795579547952F5F3F4F77FDE7CF0CC09B
:100F8000440F551F661F771F17FD4160EE0CFF1CB5
:100F9000001F111F21503040403090E0590790E071
:100FA000690790E4790760F32B8F3C8FDB01CA015E
:100FB0008F779070A070B07080349105A105B10555
:100FC00061F447FD0AC0E114F1040105110529F09F
:100FD000405C5F4F6F4F7F4F40781A8EFE1711F0C5
:100FE00081E08A8F4D8F5E8F6F8F78A383E0898F2A
:100FF000CE0149960E94DC09A096E2E10C94DD0B3B
:10100000A8E1B0E0E6E0F8E00C94CD0B69837A83C8
:101010008B839C832D833E834F83588789E0E82E02
:10102000F12CEC0EFD1EB701CE0101960E94B10A13
:101030008E010F5E1F4FB801CE0105960E94B10AC6
:101040008985823040F08989823028F0B801C70153
:101050000E94290B01C08FEF6896E6E00C94E90B23
:10106000A8E1B0E0E6E3F8E00C94CD0B69837A8365
:101070008B839C832D833E834F83588789E0E82EA2
:10108000F12CEC0EFD1EB701CE0101960E94B10AB3
:101090008E010F5E1F4FB801CE0105960E94B10A66
:1010A0008985823040F08989823028F0B801C701F3
:1010B0000E94290B01C08FEF6896E6E00C94E90BC3
:1010C000A8E1B0E0E6E6F8E00C94CD0B69837A8302
:1010D0008B839C832D833E834F83588789E0E82E42
:1010E000F12CEC0EFD1EB701CE0101960E94B10A53
:1010F0008E010F5E1F4FB801CE0105960E94B10A06
:101100008985823040F08989823028F0B801C70192
:101110000E94290B01C081E06896E6E00C94E90B7F
:10112000A8E1B0E0E6E9F8E00C94CD0B69837A839E
:101130008B839C832D833E834F83588789E0E82EE1
:10114000F12CEC0EFD1EB701CE0101960E94B10AF2
:101150008E010F5E1F4FB801CE0105960E94B10AA5
:101160008985823040F08989823028F0B801C70132
:101170000E94290B01C081E06896E6E00C94E90B1F
:10118000ACE0B0E0E6ECF8E00C94D10B69837A8334
:101190008B839C83BE016B5F7F4FCE0101960E94C3
:1011A000B10A8D81823061F1823050F1843021F4B6
:1011B0008E81882351F12EC02F81388537FD20C0C4
:1011C0006E812F3131051CF06623F9F023C08EE1CA
:1011D00090E0821B930B29853A854B855C8504C082
:1011E00056954795379527958A95D2F76623B1F09E
:1011F00050954095309521953F4F4F4F5F4F0EC012
:1012000020E030E040E050E009C02FEF3FEF4FEF2B
:101210005FE704C020E030E040E050E8B901CA01D7
:101220002C96E2E00C94ED0BA8E0B0E0EAE1F9E0E6
:101230000C94CB0B7B018C01611571058105910527
:1012400019F482E0898360C083E089838EE1C82E2F
:10125000D12CDC82CB82ED82FE820F831887C801FD
:10126000B7010E948D09BC016150704077FF39C001
:10127000EE27FF27E61BF70B20E030E040E050E0D0
:1012800081E090E0A0E0B0E00E2E04C0880F991F2E
:10129000AA1FBB1F0A94D2F70197A109B1098E2199
:1012A0009F21A023B1230097A105B10521F021E0E2
:1012B00030E040E050E004C016950795F794E794BD
:1012C000EA95D2F72E293F29402B512B2D833E83BF
:1012D0004F8358878EE190E0861B970B9C838B830E
:1012E00013C06115710581F0062E04C0EE0CFF1CC1
:1012F000001F111F0A94D2F7ED82FE820F83188718
:10130000C61AD70ADC82CB821A82CE0101960E94CD
:10131000DC092896E8E00C94E70BEF92FF920F931C
:101320001F937B018C0180E0E81680E0F80681E0E5
:10133000080780E0180788F48FEFE816F10401052C
:10134000110531F028F088E090E0A0E0B0E017C08F
:1013500080E090E0A0E0B0E012C080E0E81680E01D
:10136000F80680E0080781E0180728F088E190E09F
:10137000A0E0B0E004C080E190E0A0E0B0E020E2B6
:1013800030E040E050E0281B390B4A0B5B0B04C0F7
:1013900016950795F794E7948A95D2F7F701E859DF
:1013A000FF4F8081281B310941095109C9011F9153
:1013B0000F91FF90EF900895DF92EF92FF920F93BD
:1013C0001F93FC01E480F58006811781D180808124
:1013D000823048F480E090E0A0E1B0E0E82AF92A09
:1013E0000A2B1B2BA5C0843009F49FC0823021F446
:1013F000EE24FF24870105C0E114F1040105110565
:1014000019F4E0E0F0E096C0628173819FEF6238EA
:1014100079070CF05BC022E83FEF261B370B2A311F
:1014200031052CF020E030E040E050E02AC0B80167
:10143000A701022E04C076956795579547950A94A3
:10144000D2F781E090E0A0E0B0E004C0880F991FDF
:10145000AA1FBB1F2A95D2F70197A109B1098E21B6
:101460009F21A023B1230097A105B10521F081E0C0
:1014700090E0A0E0B0E09A01AB01282B392B4A2B79
:101480005B2BDA01C9018F779070A070B070803447
:101490009105A105B10539F427FF09C0205C3F4F34
:1014A0004F4F5F4F04C0215C3F4F4F4F5F4FE0E015
:1014B000F0E02030A0E03A07A0E04A07A0E45A0795
:1014C00010F0E1E0F0E079018A0127C06038710591
:1014D00064F5FB01E158FF4FD801C7018F77907089
:1014E000A070B07080349105A105B10539F4E7FE14
:1014F0000DC080E490E0A0E0B0E004C08FE390E095
:10150000A0E0B0E0E80EF91E0A1F1B1F17FF05C080
:1015100016950795F794E794319687E01695079509
:10152000F794E7948A95D1F705C0EE24FF2487014C
:10153000EFEFF0E06E2F679566276795902F9F7706
:10154000D794DD24D7948E2F8695492F462B582F7C
:101550005D29B701CA011F910F91FF90EF90DF90B5
:101560000895FC01DB01408151812281622F6F7758
:1015700070E0221F2227221F9381892F880F822B40
:10158000282F30E0991F9927991F11969C93119746
:1015900021153105A9F5411551056105710511F4B4
:1015A00082E037C082E89FEF13969C938E93129748
:1015B0009A01AB0167E0220F331F441F551F6A9544
:1015C000D1F783E08C930DC0220F331F441F551FAA
:1015D00012968D919C911397019713969C938E93DD
:1015E0001297203080E0380780E0480780E45807F1
:1015F00058F314962D933D934D935C93179708954C
:101600002F3F310579F4411551056105710519F434
:1016100084E08C93089564FF03C081E08C9312C032
:101620001C9210C02F57304013963C932E93129764
:1016300083E08C9387E0440F551F661F771F8A95C0
:10164000D1F7706414964D935D936D937C931797C7
:1016500008951F93DC01FB019C91923008F447C070
:101660008081823008F443C0943051F411961C916B
:10167000843099F58181682F70E0611B71093FC04A
:10168000843021F0923031F48230B9F181818823A5
:1016900089F12DC011961C9111978230F1F0818152
:1016A0001817D9F412962D913C911397828193814A
:1016B0008217930794F028173907BCF014968D9180
:1016C0009D910D90BC91A02D24813581468157813B
:1016D000281739074A075B0718F4112341F00AC09D
:1016E00082179307A407B50740F4112319F061E0AE
:1016F00070E005C06FEF7FEF02C060E070E0CB01EB
:101700001F910895DF92EF92FF920F931F937B0139
:101710008C01FB010995D82EC8010196F7010995A6
:10172000982F8D2D1F910F91FF90EF90DF900895CE
:10173000DF92EF92FF920F931F93D72E7A018C01C5
:10174000FA0109956D2DC8010196F70109951F91C0
:101750000F91FF90EF90DF900895AA1BBB1B51E102
:1017600007C0AA1FBB1FA617B70710F0A61BB70B11
:10177000881F991F5A95A9F780959095BC01CD01B6
:1017800008952F923F924F925F926F927F928F9225
:101790009F92AF92BF92CF92DF92EF92FF920F9300
:1017A0001F93CF93DF93CDB7DEB7CA1BDB0B0FB60A
:1017B000F894DEBF0FBECDBF09942A8839884888C7
:1017C0005F846E847D848C849B84AA84B984C8845D
:1017D000DF80EE80FD800C811B81AA81B981CE0F54
:1017E000D11D0FB6F894DEBF0FBECDBFED01089539
:0417F000F894FFCF9B
:1017F40000000000000000000001020203030303D4
:10180400040404040404040405050505050505058C
:10181400050505050505050506060606060606066C
:101824000606060606060606060606060606060654
:10183400060606060606060607070707070707073C
:101844000707070707070707070707070707070724
:101854000707070707070707070707070707070714
:101864000707070707070707070707070707070704
:1018740007070707070707070808080808080808EC
:1018840008080808080808080808080808080808D4
:1018940008080808080808080808080808080808C4
:1018A40008080808080808080808080808080808B4
:1018B40008080808080808080808080808080808A4
:1018C4000808080808080808080808080808080894
:1018D4000808080808080808080808080808080884
:1018E4000808080808080808080808080808080874
:0818F4000808080808080808AC
:00000001FF
