:100000000C942A000C943C000C943C000C943C0092
:100010000C943C000C943C000C943C000C943C0070
:100020000C943C000C943C000C943C000C949B0001
:100030000C943C000C943C000C943C000C943C0050
:100040000C943C000C943C000C943C000C943C0040
:100050000C943C0011241FBECFE5D4E0DEBFCDBF21
:1000600010E0A0E6B0E001C01D92A039B107E1F7B1
:100070000E946F020C94A5030C94000010BC83E353
:1000800089B988E98AB986E880BD08955D9BFECF6D
:100090008CB908955F9BFECF8CB1089520E004C019
:1000A0005D9BFECFECB92F5FFC01E20FF11DE081FB
:1000B000EE23B1F7089595988D9A8FB581608FBD25
:1000C0008EB589608EBD1ABC18BC08958FB58F7728
:1000D0008FBD08958FB580688FBD08958ABD882330
:1000E00019F48FB58F7702C08FB580688FBD0895E2
:1000F0008AB50895E7E7F0E0119280E0E238F8076A
:10010000D9F7109261000895E5E6F0E0119280E0E1
:10011000E037F807D9F7089580E090E0FC01EB594B
:10012000FF4F1082FC01E958FF4F108201968B307F
:100130009105A1F708951F920F920FB60F92112407
:100140002F933F934F936F937F938F939F93EF934F
:10015000FF9380916000882311F08CB125C08CB191
:100160008093770081E08093610020E030E041E0FF
:1001700061E070E009C087E22031380781F02F5F2D
:100180003F4FCB010197F1F75F9BF5CF8CB1E42F87
:10019000F0E0E958FF4F80834F5F4B30A8F3409366
:1001A000610081E080936000FF91EF919F918F91BA
:1001B0007F916F914F913F912F910F900FBE0F90B4
:1001C0001F901895E5E6F0E070E06E0F7F1F05C008
:1001D00080815D9BFECF8CB93196E617F707C1F79A
:1001E0000895FC019FEF21E30EC08081982780E0F5
:1001F00097FF03C0990F922701C0990F8F5F883036
:10020000B9F731966150662381F7892F089584E606
:1002100080936500909173008091740080936600D4
:1002200090936700909175008091760080936800AC
:1002300090936900909171008091720080936A00A0
:1002400090936B008091630080936C0080916200BA
:1002500080936D008091830080936E0085E690E02E
:100260006AE00E94F10080936F000895F894609115
:100270006100615087E790E00E94F10020916100E9
:10028000E22FF0E0EA58FF4F9081891769F0109251
:100290006000E7E7F0E0119240E0E238F407D9F7B8
:1002A000109261007894089580917700893699F1D1
:1002B0008A3620F4873609F057C007C0803709F422
:1002C0004BC0833709F050C011C0223009F04CC038
:1002D0000E940701E5E6F0E080815D9BFECF8CB9CE
:1002E000319680E0E037F807B9F73EC02430E1F5F9
:1002F0009091780080E02091790030E0282B392B14
:10030000C9018C509340895E934070F53093720020
:100310002093710029C0223039F586E7809365006B
:1003200081E080936600809367002093680080934B
:10033000690085E690E065E00E94F10080936A0024
:10034000E5E6F0E080815D9BFECF8CB9319680E0E0
:10035000EB36F807B9F708C0233031F48091780004
:10036000823010F48093830010926000E7E7F0E0A1
:10037000119240E0E238F407D9F7109261007894C6
:100380000895882311F043E001C042E084B321E0E6
:1003900030E0922F042E01C0990F0A94EAF7892BBE
:1003A00084BBE0ECF3E03197F1F784B390959823A8
:1003B00094BB8AEB8A95F1F783B3E4E3F3E03197DA
:1003C000F1F790E002C0959587954A95E2F782276C
:1003D000932781700895482F662311F023E001C010
:1003E00022E081E090E0382F01C0330F2A95EAF730
:1003F000532F5095242F90E0E0EA7AE160E14AEA39
:1004000020FF0BC084B3832B84BB862F8A95F1F722
:1004100084B3852384BB842F0AC084B3832B84BB1D
:100420008E2F8A95F1F784B3852384BB872F8A9515
:10043000F1F79F5F983011F02695E2CF0895FF9273
:100440000F931F93882311F083E001C082E061E0E5
:1004500070E002C0660F771F8A95E2F7A62FB62FCD
:10046000B09520E030E040E050E080E1F82E08E177
:10047000E1E0F0E012E984B38A2B84BB8F2D8A95EA
:10048000F1F784B38B2384BB802F8A95F1F783B374
:1004900090E086239723892B61F4CF01042E02C0BC
:1004A000880F991F0A94E2F78095909528233923A5
:1004B00009C0CF01042E02C0880F991F0A94E2F7E9
:1004C000282B392B812F8A95F1F74F5F5F4F4031F1
:1004D000510589F6C9011F910F91FF9008959F92D0
:1004E000AF92BF92CF92DF92EF92FF920F931F9342
:1004F000CF93DF9382EC96E090937200809371002B
:100500001092830010927400109273001092760083
:100510001092750080E090E0FC01EB59FF4F1082D3
:10052000FC01E958FF4F108201968B309105A1F72D
:1005300020E030E040E050E020938C0030938D00CC
:1005400040938E0050938F008AE097EDA3EABCE3BE
:100550008093880090938900A0938A00B0938B00C9
:100560002093840030938500409386005093870049
:1005700085B3837F85BB84B3837F84BB95988D9A35
:1005800010BC83E389B988E98AB986E880BD78948C
:1005900001E010E2A12E1EE4B12EB1E0EB2EF12C11
:1005A000C12CA5E0DA2E99249A9401C000E012E053
:1005B000C5010197F1F71F5F80916000882311F05A
:1005C0000E9436011332A1F710926200C0E0D0E021
:1005D0008C2F0E94C101813059F48CEC6C2F0E9449
:1005E000EB0184E46C2F0E94EB01109262000CC0BE
:1005F00097010C2E02C0220F331F0A94E2F780915C
:100600006200822B809362002196C230D10501F7EF
:10061000013061F203E710E0C0E0D0E08C2F0E94CF
:10062000C101813009F049C08CEC6C2F0E94EB01B4
:100630008EEB6C2F0E94EB018C2F0E941F0297FD06
:1006400002C0E0E004C0909581959F4FE1E080FDFD
:1006500003C040E050E002C041E450E081FF02C02E
:1006600043585F4F82FF02C046505F4F83FF02C076
:100670004C505E4FF4E096958795FA95E1F79C0112
:1006800073E0220F331F7A95E1F7880F991F280F27
:10069000391FCA0164E670E00E949103620F731F64
:1006A000E13029F4C601861B970BBC0102C06050E3
:1006B0007B4FF801718360830CC097010C2E02C040
:1006C000220F331F0A94E2F780916200822B8093FD
:1006D000620021960E5F1F4FC230D10509F09ECFF8
:1006E000809183008823C9F0959A909263008130AD
:1006F00009F05CCF4091730050917400209171001B
:1007000030917200C90101968417950710F4959AEB
:100710004DCF4217530708F049CF959810926300C8
:1007200045CFAA1BBB1B51E107C0AA1FBB1FA617C1
:10073000B70710F0A61BB70B881F991F5A95A9F78A
:0E07400080959095BC01CD010895F894FFCFEF
:00000001FF
