:100000000C942A000C9447000C9447000C94470071
:100010000C9447000C9447000C9447000C94470044
:100020000C9447000C9447000C9447000C94A600D5
:100030000C9447000C9447000C9447000C94470024
:100040000C9447000C9447000C9447000C94470014
:100050000C94470011241FBECFE5D4E0DEBFCDBF16
:1000600011E0A8E6B1E001C01D92A339B107E1F7A4
:1000700011E0A0E6B0E0E6E1F7E102C005900D92E4
:10008000A836B107D9F70E9486020C94890B0C940C
:10009000000010BC83E389B988E98AB986E880BD8D
:1000A00008955D9BFECF8CB908955F9BFECF8CB108
:1000B000089520E004C05D9BFECFECB92F5FFC01EA
:1000C000E20FF11DE081EE23B1F7089595988D9A26
:1000D0008FB581608FBD8EB589608EBD1ABC18BC8E
:1000E00008958FB58F778FBD08958FB580688FBDC8
:1000F00008958ABD882319F48FB58F7702C08FB514
:1001000080688FBD08958AB50895EEE7F1E01192F9
:1001100081E0E938F807D9F7109269010895ECE613
:10012000F1E0119281E0E737F807D9F7089580E010
:1001300090E0FC01E459FE4F1082FC01E258FE4FB2
:10014000108201968B309105A1F708951F920F92AE
:100150000FB60F9211242F933F934F936F937F937A
:100160008F939F93EF93FF9380916801882311F001
:100170008CB125C08CB180937E0181E080936901B0
:1001800020E030E041E061E070E009C087E220312A
:10019000380781F02F5F3F4FCB010197F1F75F9B4D
:1001A000F5CF8CB1E42FF0E0E258FE4F80834F5F33
:1001B0004B30A8F34093690181E080936801FF917F
:1001C000EF919F918F917F916F914F913F912F91DF
:1001D0000F900FBE0F901F901895ECE6F1E070E0C5
:1001E0006E0F7F1F05C080815D9BFECF8CB931965D
:1001F000E617F707C1F70895FC019FEF21E30EC052
:100200008081982780E097FF03C0990F922701C053
:10021000990F8F5F8830B9F731966150662381F767
:10022000892F089584E680936C0190917A018091E2
:100230007B0180936D0190936E0190917C01809180
:100240007D0180936F01909370019091780180916E
:100250007901809371019093720180916B01809379
:10026000730180916A018093740180918A01809367
:1002700075018CE691E06AE00E94FC0080937601B3
:100280000895882311F043E001C042E084B321E0E7
:1002900030E0922F042E01C0990F0A94EAF7892BBF
:1002A00084BBE4EDF3E03197F1F784B390959823A4
:1002B00094BB85ED8A95F1F783B3E8E4F3E03197D9
:1002C000F1F790E002C0959587954A95E2F782276D
:1002D000932781700895482F662311F023E001C011
:1002E00022E081E090E0382F01C0330F2A95EAF731
:1002F000532F5095242F90E0EAEB78E268E148EC28
:1003000020FF0BC084B3832B84BB862F8A95F1F723
:1003100084B3852384BB842F0AC084B3832B84BB1E
:100320008E2F8A95F1F784B3852384BB872F8A9516
:10033000F1F79F5F983011F02695E2CF0895FF9274
:100340000F931F93882311F083E001C082E061E0E6
:1003500070E002C0660F771F8A95E2F7A62FB62FCE
:10036000B09520E030E040E050E088E1F82E00E277
:10037000E1E0F0E01DEA84B38A2B84BB8F2D8A95DF
:10038000F1F784B38B2384BB802F8A95F1F783B375
:1003900090E086239723892B61F4CF01042E02C0BD
:1003A000880F991F0A94E2F78095909528233923A6
:1003B00009C0CF01042E02C0880F991F0A94E2F7EA
:1003C000282B392B812F8A95F1F74F5F5F4F4031F2
:1003D000510589F6C9011F910F91FF900895F89476
:1003E0006091690161508EE791E00E94FC002091CC
:1003F0006901E22FF0E0E358FE4F9081891769F020
:1004000010926801EEE7F1E0119241E0E938F4075B
:10041000D9F7109269017894089580917E01893608
:10042000D1F18A3620F4873609F063C007C08037DF
:1004300009F452C0833709F05CC011C0223009F0C2
:1004400058C00E941201ECE6F1E080815D9BFECF76
:100450008CB9319681E0E737F807B9F74AC0243004
:1004600009F047C090917F0180E02091800130E049
:10047000282B392BC9018C509340895E934020F47E
:10048000309379012093780160917801709179011E
:1004900080E090E02CC0223061F586E780936C010B
:1004A00081E080936D0180936E0120936F018093B2
:1004B00070018CE691E065E00E94FC008093710180
:1004C000ECE6F1E080815D9BFECF8CB9319681E056
:1004D000E237F807B9F70DC0233059F460917F0176
:1004E000623038F460938A0182E090E070E00E940C
:1004F000670B10926801EEE7F1E0119241E0E938F4
:10050000F407D9F710926901789408952F923F92D9
:100510004F925F926F927F928F929F92AF92BF9213
:10052000CF92DF92EF92FF920F931F93DF93CF93BF
:1005300000D00F92CDB7DEB780E090E00E94610B53
:10054000909379018093780182E090E00E94590BAA
:1005500080938A0110927B0110927A0110927D01A2
:1005600010927C0180E090E0FC01E459FE4F108283
:10057000FC01E258FE4F108201968B309105A1F7E5
:1005800080E090E0A0E0B0E080938F019093900134
:10059000A0939101B093920180938B0190938C0171
:1005A000A0938D01B0938E0185B3837F85BB84B307
:1005B000837F84BB95988D9A10BC83E389B988E9C1
:1005C0008AB986E880BD789421E0298311E0212E44
:1005D000312CB8EC4B2E512C01C01982809168014E
:1005E000882311F00E94EF0110926A0100E010E0F0
:1005F000802F0E944101813059F48CEC602F0E94C1
:100600006B0184E4602F0E946B0110926A010CC0A0
:100610009101002E02C0220F331F0A94E2F780914D
:100620006A01822B80936A010F5F1F4F0230110510
:10063000F9F63981313089F2AAE7EA2EA1E0FA2EE3
:1006400000E010E0802F0E944101813009F04AC093
:100650008CEC602F0E946B018EEB602F0E946B016F
:10066000802F0E949F0197FD02C0E0E004C090959A
:1006700081959F4FE1E080FD03C040E050E002C063
:1006800041E450E081FF02C043585F4F82FF02C047
:1006900046505F4F83FF02C04C505E4FF4E096958A
:1006A0008795FA95E1F79C0173E0220F331F7A9545
:1006B000E1F7880F991F280F391FCA0164E670E01F
:1006C0000E940E0B620F731FE13031F480E095E061
:1006D000861B970BBC0102C060507B4FF7017183F2
:1006E00060830CC09101002E02C0220F331F0A94B8
:1006F000E2F780916A01822B80936A010F5F1F4F9E
:1007000022E030E0E20EF31E0230110509F09ACF2C
:1007100080918A018823B9F410926B0180E090E007
:10072000A0E0B0E080938F0190939001A09391019D
:10073000B093920180938B0190938C01A0938D01D3
:10074000B0938E014ACF813009F047CF60917A0192
:1007500070917B0180E090E00E94A0087B018C01F9
:10076000609178017091790180E090E00E94A0088A
:100770009B01AC01C801B7010E94340660938B0154
:1007800070938C0180938D0190938E012AE037ED58
:1007900043EA5CE30E94920620918F013091900120
:1007A00040919101509192010E94650660938F01E2
:1007B00070939001809391019093920120E030E832
:1007C0004FEF53E40E948C07181664F480E090E821
:1007D000AFEFB3E480938F0190939001A0939101C8
:1007E000B093920160918F0170919001809191017D
:1007F0009091920120E030E040E050E00E941C081F
:10080000181664F080E090E0A0E0B0E080938F01E3
:1008100090939001A0939101B093920160908F0109
:10082000709090018090910190909201C401B30169
:1008300020E030E040E050E00E948C0718160CF4F5
:10084000959AC401B3010E94BC047B836A8380E053
:1008500090E00E94A0085B016C0120E030E04AEFCC
:1008600054E40E9492067B018C0120E030E040E8D5
:100870005FE30E94EC0788231CF461E070E022C073
:10088000C801B70120E03FEF4FE757E40E948C0713
:100890001816A4F4C601B50120E030E040E251E4AE
:1008A0000E9492060E94BC0405C0C2010197F1F7A4
:1008B0006150704061157105C1F707C0C801B701EB
:1008C0000E94BC04CB010197F1F72A813B812F5F85
:1008D000314009F095986FEF71E0EA81FB816E1B62
:1008E0007F0B80E090E00E94A0085B016C0120E09B
:1008F00030E04AEF54E40E9492067B018C0120E034
:1009000030E040E85FE30E94EC0788231CF461E0DC
:1009100070E022C0C801B70120E03FEF4FE757E485
:100920000E948C071816A4F4C601B50120E030E03F
:1009300040E251E40E9492060E94BC0405C0C2013C
:100940000197F1F76150704061157105C1F707C05B
:10095000C801B7010E94BC04CB010197F1F7C401A3
:10096000B30120E030E040E05FE30E9492060E9485
:10097000BC0460936B0131CEEF92FF920F931F93F3
:100980007B018C0120E030E040E05FE40E94BC0786
:1009900088238CF0C801B70120E030E040E05FE43C
:1009A0000E9434060E944C089B01AC01205030404C
:1009B0004040504806C0C801B7010E944C089B0146
:1009C000AC01B901CA011F910F91FF90EF900895FA
:1009D000A0E0B0E0EEEEF4E00C94220BDC012B0181
:1009E000FA019C91923008F439C1EB018881823080
:1009F00008F433C1943069F4843009F02FC11196A2
:100A00009C9111978981981709F428C1A0E6B0E05C
:100A100025C1843009F421C18230A9F4923009F053
:100A20001DC19A01AD0188E0EA010990AE01E9011A
:100A300009929E018150C1F7E201898111969C9132
:100A40008923818308C1923009F407C112962D9041
:100A50003C901397EB018A819B811496AD90BD90D9
:100A6000CD90DC901797EC80FD800E811F81910165
:100A7000281B390BB90137FF04C066277727621B93
:100A8000730B603271050CF061C0121613066CF521
:100A900037014801062E04C0969487947794679492
:100AA0000A94D2F721E030E040E050E004C0220F89
:100AB000331F441F551F6A95D2F7215030404040E4
:100AC00050402E213F21402351232115310541055E
:100AD000510521F021E030E040E050E079018A0149
:100AE000E628F728082919293CC0232BD1F1260E26
:100AF000371E35014601062E04C0969487947794DC
:100B000067940A94D2F721E030E040E050E004C05E
:100B1000220F331F441F551F6A95D2F721503040D2
:100B2000404050402A213B214C215D2121153105B7
:100B30004105510521F021E030E040E050E059014D
:100B40006A01A628B728C828D9280BC082159305A2
:100B50002CF01C01AA24BB24650103C0EE24FF2451
:100B6000870111969C91D20111968C91981709F4E6
:100B700045C0992339F0A80197012A193B094C096E
:100B80005D0906C0A60195012E193F09400B510BC6
:100B900057FD08C011823382228224833583468325
:100BA00057831DC081E08183338222828827992761
:100BB000DC01821B930BA40BB50B84839583A68366
:100BC000B7830DC0220F331F441F551F2483358365
:100BD0004683578382819381019793838283248103
:100BE000358146815781DA01C9010197A109B1090F
:100BF0008F5F9F4FAF4FBF4328F30BC0918333826A
:100C00002282EA0CFB1C0C1D1D1DE482F58206836A
:100C1000178383E08083248135814681578157FF84
:100C20001AC0C901AA2797FDA095BA2F81709070AC
:100C3000A070B0705695479537952795822B932BCA
:100C4000A42BB52B84839583A683B783828193815C
:100C5000019693838283DF0101C0D201CD01CDB71C
:100C6000DEB7E2E10C943E0BA0E2B0E0EAE3F6E08E
:100C70000C942E0B69837A838B839C832D833E8314
:100C80004F835887E9E0EE2EF12CEC0EFD1ECE01CD
:100C90000196B7010E943D0A8E010F5E1F4FCE01E3
:100CA0000596B8010E943D0A8A8991E089278A8BBE
:100CB000C701B801AE01475E5F4F0E94E8040E9481
:100CC0006809A096E6E00C944A0BA0E2B0E0EBE6DF
:100CD000F6E00C942E0B69837A838B839C832D839F
:100CE0003E834F835887F9E0EF2EF12CEC0EFD1E6A
:100CF000CE010196B7010E943D0A8E010F5E1F4F83
:100D0000CE010596B8010E943D0AC701B801AE01A7
:100D1000475E5F4F0E94E8040E946809A096E6E0E3
:100D20000C944A0BA0E2B0E0E8E9F6E00C94220B48
:100D300069837A838B839C832D833E834F8358877B
:100D4000CE010196BE01675F7F4F0E943D0ACE0132
:100D50000596BE016F5E7F4F0E943D0A99859230D5
:100D600088F089898230C8F0943019F4823051F4C7
:100D700004C0843029F4923081F480E690E0C6C04B
:100D8000923049F420E09A858A89981321E02A87D5
:100D9000CE010996BBC0823049F420E09A858A8949
:100DA000981321E02A8BCE014196B0C02D843E8459
:100DB0004F8458886D887E888F88988CEE24FF2415
:100DC0008701AA24BB24650140E050E060E070E0A8
:100DD000E0E0F0E0C10181709070892BE9F0E60C51
:100DE000F71C081D191D9A01AB012A0D3B1D4C1D56
:100DF0005D1D80E090E0A0E0B0E0E614F704080597
:100E0000190520F481E090E0A0E0B0E0BA01A9016A
:100E1000480F591F6A1F7B1FAA0CBB1CCC1CDD1C72
:100E200097FE08C081E090E0A0E0B0E0A82AB92ACF
:100E3000CA2ADB2A3196E032F10549F0660C771CAC
:100E4000881C991C5694479437942794C3CFFA85ED
:100E5000EA892B893C898B859C85280F391F2E5F59
:100E60003F4F17C0CA0181709070892B61F01695B1
:100E70000795F794E79480E090E0A0E0B0E8E82AD6
:100E8000F92A0A2B1B2B76956795579547952F5F67
:100E90003F4F77FDE7CF0CC0440F551F661F771FEC
:100EA00017FD4160EE0CFF1C001F111F2150304048
:100EB000403090E0590790E0690790E4790760F3CB
:100EC0002B8F3C8FDB01CA018F779070A070B070C0
:100ED00080349105A105B10561F447FD0AC0E11414
:100EE000F1040105110529F0405C5F4F6F4F7F4F02
:100EF00040781A8EFE1711F081E08A8F4D8F5E8F39
:100F00006F8F78A383E0898FCE0149960E9468098C
:100F1000A096E2E10C943E0BA8E1B0E0E2E9F7E034
:100F20000C942E0B69837A838B839C832D833E8361
:100F30004F83588789E0E82EF12CEC0EFD1ECE0180
:100F40000196B7010E943D0A8E010F5E1F4FCE0130
:100F50000596B8010E943D0A8985823040F0898952
:100F6000823028F0C701B8010E94B50A01C08FEF96
:100F70006896E6E00C944A0BA8E1B0E0E2ECF7E0FA
:100F80000C942E0B69837A838B839C832D833E8301
:100F90004F83588789E0E82EF12CEC0EFD1ECE0120
:100FA0000196B7010E943D0A8E010F5E1F4FCE01D0
:100FB0000596B8010E943D0A8985823040F08989F2
:100FC000823028F0C701B8010E94B50A01C08FEF36
:100FD0006896E6E00C944A0BA8E1B0E0E2EFF7E097
:100FE0000C942E0B69837A838B839C832D833E83A1
:100FF0004F83588789E0E82EF12CEC0EFD1ECE01C0
:101000000196B7010E943D0A8E010F5E1F4FCE016F
:101010000596B8010E943D0A8985823040F0898991
:10102000823028F0C701B8010E94B50A01C081E0F2
:101030006896E6E00C944A0BA8E1B0E0E2E2F8E042
:101040000C942E0B69837A838B839C832D833E8340
:101050004F83588789E0E82EF12CEC0EFD1ECE015F
:101060000196B7010E943D0A8E010F5E1F4FCE010F
:101070000596B8010E943D0A8985823040F0898931
:10108000823028F0C701B8010E94B50A01C081E092
:101090006896E6E00C944A0BACE0B0E0E2E5F8E0DC
:1010A0000C94320B69837A838B839C83CE010196E7
:1010B000BE016B5F7F4F0E943D0A8D81823061F1DE
:1010C000823050F1843021F48E81882351F12EC07A
:1010D0002F81388537FD20C06E812F3131051CF0FE
:1010E0006623F9F023C08EE190E0821B930B2985E3
:1010F0003A854B855C8504C056954795379527956D
:101100008A95D2F76623B1F0509540953095219598
:101110003F4F4F4F5F4F0EC020E030E040E050E0C7
:1011200009C02FEF3FEF4FEF5FE704C020E030E052
:1011300040E050E8B901CA012C96E2E00C944E0B55
:10114000A8E0B0E0E6EAF8E00C942A0B7B018C0101
:10115000611571058105910519F482E0898360C0EC
:1011600083E089838EE1C82ED12CDC82CB82ED8294
:10117000FE820F831887C801B7010E941909FC017C
:101180003197F7FF3BC0222733272E1B3F0B570118
:101190006801022E04C0D694C794B794A7940A9409
:1011A000D2F740E050E060E070E081E090E0A0E045
:1011B000B0E004C0880F991FAA1FBB1F2A95D2F761
:1011C0000197A109B1098E219F21A023B123009786
:1011D000A105B10521F041E050E060E070E04A294E
:1011E0005B296C297D294D835E836F8378878EE12F
:1011F00090E08E1B9F0B9C838B8312C0309781F0F5
:101200000E2E04C0EE0CFF1C001F111F0A94D2F713
:10121000ED82FE820F831887CE1ADF0ADC82CB8232
:101220001A82CE0101960E9468092896EAE00C9481
:10123000460BEF92FF920F931F937B018C0180E08E
:10124000E81680E0F80681E0080780E0180788F4D7
:101250008FEFE816F1040105110531F028F088E060
:1012600090E0A0E0B0E017C080E090E0A0E0B0E047
:1012700012C080E0E81680E0F80680E0080781E010
:10128000180728F088E190E0A0E0B0E004C080E119
:1012900090E0A0E0B0E020E230E040E050E0281B29
:1012A000390B4A0B5B0B04C016950795F794E7942E
:1012B0008A95D2F7F701E859FF4F8081281B310941
:1012C00041095109C9011F910F91FF90EF900895B5
:1012D000DF92EF92FF920F931F93FC01E480F58061
:1012E00006811781D1808081823048F480E090E0CF
:1012F000A0E1B0E0E82AF92A0A2B1B2BA5C0843014
:1013000009F49FC0823021F4EE24FF24870105C038
:10131000E114F1040105110519F4E0E0F0E096C0D4
:10132000628173819FEF623879070CF05BC022E81D
:101330003FEF261B370B2A3131052CF020E030E03F
:1013400040E050E02AC0B801A701022E04C0769503
:101350006795579547950A94D2F781E090E0A0E011
:10136000B0E004C0880F991FAA1FBB1F2A95D2F7AF
:101370000197A109B1098E219F21A023B1230097D4
:10138000A105B10521F081E090E0A0E0B0E09A0174
:10139000AB01282B392B4A2B5B2BDA01C9018F7744
:1013A0009070A070B07080349105A105B10539F43A
:1013B00027FF09C0205C3F4F4F4F5F4F04C0215CA7
:1013C0003F4F4F4F5F4FE0E0F0E02030A0E03A07A2
:1013D000A0E04A07A0E45A0710F0E1E0F0E079014C
:1013E0008A0127C06038710564F5FB01E158FF4FA1
:1013F000D801C7018F779070A070B07080349105CC
:10140000A105B10539F4E7FE0DC080E490E0A0E04D
:10141000B0E004C08FE390E0A0E0B0E0E80EF91E79
:101420000A1F1B1F17FF05C016950795F794E79431
:10143000319687E016950795F794E7948A95D1F74A
:1014400005C0EE24FF248701EFEFF0E06E2F6795D3
:1014500066276795902F9F77D794DD24D7948E2F9A
:101460008695492F462B582F5D29B701CA011F9138
:101470000F91FF90EF90DF900895FC01DB01408118
:1014800051812281622F6F7770E0221F2227221F55
:101490009381892F880F822B282F30E0991F99275D
:1014A000991F11969C93119721153105A9F54115A6
:1014B00051056105710511F482E037C082E89FEFA4
:1014C00013969C938E9312979A01AB0167E0220FBB
:1014D000331F441F551F6A95D1F783E08C930DC0CD
:1014E000220F331F441F551F12968D919C91139705
:1014F000019713969C938E931297203080E03807C3
:1015000080E0480780E4580758F314962D933D93E4
:101510004D935C93179708952F3F310579F441154A
:1015200051056105710519F484E08C93089564FFF9
:1015300003C081E08C9312C01C9210C02F57304022
:1015400013963C932E93129783E08C9387E0440F7D
:10155000551F661F771F8A95D1F7706414964D93B7
:101560005D936D937C93179708951F93DC01FB01A6
:101570009C91923008F447C08081823008F443C0C7
:10158000943051F411961C91843099F58181682F23
:1015900070E0611B71093FC0843021F0923031F45A
:1015A0008230B9F18181882389F12DC011961C9177
:1015B00011978230F1F081811817D9F412962D918C
:1015C0003C911397828193818217930794F0281797
:1015D0003907BCF014968D919D910D90BC91A02D72
:1015E0002481358146815781281739074A075B07CF
:1015F00018F4112341F00AC082179307A407B50716
:1016000040F4112319F061E070E005C06FEF7FEF47
:1016100002C060E070E0CB011F910895AA1BBB1BC4
:1016200051E107C0AA1FBB1FA617B70710F0A61BE2
:10163000B70B881F991F5A95A9F780959095BC0103
:10164000CD0108952F923F924F925F926F927F92B9
:101650008F929F92AF92BF92CF92DF92EF92FF92C2
:101660000F931F93CF93DF93CDB7DEB7CA1BDB0B6E
:101670000FB6F894DEBF0FBECDBF09942A88398813
:1016800048885F846E847D848C849B84AA84B9841A
:10169000C884DF80EE80FD800C811B81AA81B98126
:1016A000CE0FD11D0FB6F894DEBF0FBECDBFED013A
:1016B0000895E199FECF9FBB8EBBE09A99278DB329
:1016C0000895A8E1B0E042E050E00C946E0B0E9457
:1016D0007C0B272F0C947D0BDC01CB01FC01E199E5
:1016E000FECF06C0FFBBEEBBE09A31960DB20D9265
:1016F00041505040B8F70895262FE199FECF9FBB87
:101700008EBB2DBB0FB6F894E29AE19A0FBE0196FC
:061710000895F894FFCFDC
:1017160000000000000000000001020203030303B2
:10172600040404040404040405050505050505056B
:10173600050505050505050506060606060606064B
:101746000606060606060606060606060606060633
:10175600060606060606060607070707070707071B
:101766000707070707070707070707070707070703
:1017760007070707070707070707070707070707F3
:1017860007070707070707070707070707070707E3
:1017960007070707070707070808080808080808CB
:1017A60008080808080808080808080808080808B3
:1017B60008080808080808080808080808080808A3
:1017C6000808080808080808080808080808080893
:1017D6000808080808080808080808080808080883
:1017E6000808080808080808080808080808080873
:1017F6000808080808080808080808080808080863
:101806000808080808080808080808080808080852
:0818160008080808080808088A
:00000001FF
