:100000000C94E2000C940A010C940A010C940A016D
:100010000C940A010C940A010C940A010C940A0134
:100020000C940A010C940A010C940A010C940A0124
:100030000C940A010C940A010C940A010C940A0114
:100040000C946F060C940A010C9448020C940A015B
:100050000C940A010C940A010C940A010C940A01F4
:100060000C940A010C940A01005EBCE2613FDD833E
:10007000C29C7E20A3FD1F419DC3217FFCA2401E88
:100080005F01E3BD3E6082DC237D9FC1421CFEA078
:10009000E1BF5D0380DE3C62BEE0025CDF81633D68
:1000A0007C22C09E1D43A1FF4618FAA427799BC558
:1000B00084DA3866E5BB5907DB856739BAE4065848
:1000C0001947A5FB7826C49A653BD987045AB8E638
:1000D000A7F91B45C6987A24F8A6441A99C7257B28
:1000E0003A6486D85B05E7B98CD2306EEDB3510F18
:1000F0004E10F2AC2F7193CD114FADF3702ECC9208
:10010000D38D6F31B2EC0E50AFF1134DCE90722CF7
:100110006D33D18F0C52B0EE326C8ED0530DEFB1E7
:10012000F0AE4C1291CF2D73CA947628ABF51749D7
:100130000856B4EA6937D58B5709EBB536688AD4C7
:1001400095CB2977F4AA4816E9B7550B88D6346AB7
:100150002B7597C94A14F6A8742AC896154BA9F7A7
:10016000B6E80A54D7896B35000000080002010088
:100170000003040700000000000000000102040862
:100180001020408001020408102001020408102001
:10019000040404040404040402020202020203032D
:1001A00003030303000000002300260029000000D1
:1001B0000000250028002B0000000000240027007C
:1001C0002A00690411241FBECFEFD8E0DEBFCDBFE7
:1001D00011E0A0E0B1E0E0E0F4E102C005900D9292
:1001E000A230B107D9F721E0A2E0B1E001C01D9231
:1001F000A735B207E1F711E0C4ECD1E004C02297C3
:10020000FE010E94C909C23CD107C9F70E94F50747
:100210000C94FE090C94000080E491E00E946E04AE
:1002200068E371E080E491E00E94690541E064E4E4
:1002300080E491E00C940B05CF93DF9380E491E090
:100240000E946E0468E371E080E491E00E94690519
:1002500040E06EEB80E491E00E940B05CCE2D1E03F
:1002600080E491E00E944D05899381E0C533D80771
:10027000B9F768E088E391E00E9463069091350148
:10028000891721F081E08093050102C010920501D9
:1002900020912D0130E0322F222780912C01282B34
:1002A00037FF05C0319521953109D1E001C0D0E07B
:1002B00044E050E080E090E0C1E0E1E7F2E06C2F44
:1002C00070E0DB01A223B323AB2B49F06E9FD0017A
:1002D0006F9FB00D7E9FB00D11248A0F9B1FCC0F16
:1002E0004150510961F7A90124E0569547952A9597
:1002F000E1F7DD2389F02AE0249FB001259F700DEE
:10030000112420E035E0261B370B68EE73E00E94D5
:10031000B309261B370B0DC06AE0649F9001659FEF
:10032000300D11243B5F68EE73E00E94B309260F85
:10033000371FC901DF91CF9108959091C00095FFBB
:10034000FCCF8093C6000895E8E1F1E0119281E0CE
:10035000E332F807D9F7109206010895ECE0F1E0D6
:10036000A8E1B1E011921D9281E0E731F807D1F7E1
:100370000895CF93DF9361E085E00E94850760E0F8
:1003800085E00E94BE071092C50087E68093C400F6
:100390008091C10088698093C1008091C20086600D
:1003A0008093C2000E94AE0168E371E080E491E0B6
:1003B0000E94CB05811103C081E08093040167E0B6
:1003C00088E391E00E94630690913F01891719F03C
:1003D00081E08093040180913801883219F081E036
:1003E0008093040180E491E00E946E0468E371E070
:1003F00080E491E00E94690540E06EE480E491E0D1
:100400000E940B0540E060E080E491E00E940B0553
:1004100040E060E080E491E00E940B0540E06FE77F
:1004200080E491E00E940B0580E491E00E946E045C
:1004300081E090E00E94D509EC019093090180933E
:10044000080180E090E00E94CD0980930301CC5028
:10045000D340C93ED34030F020E035E0309309016D
:1004600020930801823010F0109203010E940C01C9
:100470006CEF73E080E090E00E94DC060E941C01BB
:1004800090930B0180930A017894DF91CF910895A6
:100490001F920F920FB60F9211242F933F934F93F9
:1004A0005F936F938F939F93EF93FF9380910701D7
:1004B000882321F08091C60090E009C08091C60099
:1004C0008093180181E08093060180E090E021E0B4
:1004D00030E051E040910701411125C04091C0003A
:1004E00047FD0CC0803147E2940719F4509307018F
:1004F00005C00196F9013197F1F7F0CF409107015E
:10050000411111C0409106016091C600E42FF0E056
:10051000E85EFE4F60834F5F409306014B30D0F2A0
:1005200081E080930701FF91EF919F918F916F91EF
:100530005F914F913F912F910F900FBE0F901F90A1
:100540001895EF92FF920F931F93CF93DF931F9213
:10055000CDB7DEB70CE011E078018E2D801B861739
:1005600040F4F70181917F0169830E949D016981B7
:10057000F4CF0F90DF91CF911F910F91FF90EF90EB
:100580000895FC018FEF21E3615060F0919189277C
:1005900098E087FF03C0880F822701C0880F915021
:1005A000C1F7F2CF089584E680930C0180910A018F
:1005B00090910B0190930D0180930E0180910001A9
:1005C0009091010190930F01809310018091080197
:1005D0009091090190931101809312018091020181
:1005E000809313018091040190910501892B8093E0
:1005F000140180910301809315016AE08CE091E081
:100600000E94C102809316010895CF93F894C0917F
:1006100006016FEF6C0F88E191E00E94C102EC2FA0
:10062000F0E0E95EFE4F908189135AC08091180175
:10063000893679F118F4873639F052C0803709F4D9
:1006400043C0833741F04CC0C23009F049C00E941A
:10065000D3026BE034C0C43009F042C0809119016C
:1006600090E0982F882720911A01822B9C012C5012
:100670003340293E334020F49093090180930801D0
:10068000609108017091090181E090E00E94E90900
:1006900027C0C23029F586E780930C0181E0809362
:1006A0000D0180930E01C0930F018093100165E04E
:1006B0008CE091E00E94C1028093110166E08CE021
:1006C00091E00E94A1020CC0C33051F46091190165
:1006D000623030F46093030180E090E00E94DB0917
:1006E000109207010E94A4017894CF910895CF92AF
:1006F000DF92EF92FF928091070181110E94050322
:10070000809104018111E0C00E940C0180910301DD
:10071000811116C010920201109228011092290135
:1007200010922A0110922B0110922401109225019F
:10073000109226011092270160E085E00E94BE071A
:10074000809105018111BAC080910301813009F0C7
:10075000B5C060910A0170910B0180E090E00E94A9
:100760009A086B017C01609108017091090180E099
:1007700090E00E949A089B01AC01C701B6010E945B
:1007800005086093240170932501809326019093BE
:1007900027012AE037ED43E25DE30E9450092091F2
:1007A00028013091290140912A0150912B010E948A
:1007B00006086B017C0120E030E04FE754E40E9422
:1007C0004C0918166CF480E090E0AFE7B4E4809335
:1007D000280190932901A0932A01B0932B011AC0FC
:1007E00020E030E0A901C701B6010E946A0887FD38
:1007F00009C0C0922801D0922901E0922A01F0920A
:100800002B0108C0109228011092290110922A0190
:1008100010922B0120E030E0A90160912801709135
:10082000290180912A0190912B010E944C091816F0
:1008300024F461E085E00E94BE0760912801709178
:10084000290180912A0190912B010E946E080E943B
:10085000DC06609128017091290180912A01909114
:100860002B010E946E086C3F734021F060E085E030
:100870000E94BE07209128013091290140912A0150
:1008800050912B0160E070E08FE794E40E9405082E
:100890000E946E080E94DC0620E030E040E85EE343
:1008A000609128017091290180912A0190912B017A
:1008B0000E9450090E946E08609302010E941C0170
:1008C00090930B0180930A01FF90EF90DF90CF90FF
:1008D000089560E180E491E00C94A805FF920F93E5
:1008E0001F93CF93DF93FC010081C181D281F894E3
:1008F0008981F02EF0948F21898378941DE711501F
:1009000029F182E090E00E94160788818023B9F3E4
:10091000F8948A818F218A838981802B89837894B6
:1009200084EF91E00E941607F89489818F218983D2
:1009300080E590E00E9416078881802311E009F08D
:1009400010E0789484EA91E00E941607812FDF91ED
:10095000CF911F910F91FF9008951F93CF93DF9335
:10096000FC011081C181D281912F909560FF12C04E
:10097000F8948A8189238A838981812B89838AE0FB
:1009800090E00E9416078A81812B8A83789487E3FE
:1009900090E011C0F8948A8189238A838981812B10
:1009A000898381E490E00E9416078A81812B8A83E3
:1009B000789485E090E0DF91CF911F910C94160719
:1009C0000F931F93CF93DF93FC011081C181D281DC
:1009D000F8948981812B89838A81012F0095802356
:1009E0008A8383E090E00E941607898180238983AF
:1009F0008AE090E00E941607C881789485E390E031
:100A00000E9416071C2381E009F480E0DF91CF915A
:100A10001F910F910895CF92DF92EF92FF920F9363
:100A20001F93CF93DF931F92CDB7DEB76C01E62EF5
:100A300008E010E0FF24F39461E09F2D9E2109F46B
:100A400060E0C60149830E94AD04FF0C015011090A
:100A500049810115110581F7411115C0F894D6019E
:100A60001196ED91FC91129791818C91809589233B
:100A700081831196ED91FC91129792818C918095D2
:100A80008923828378940F90DF91CF911F910F91EA
:100A9000FF90EF90DF90CF900895EF92FF920F9329
:100AA0001F93CF93DF938C01C8E0D0E0F12CEE24AC
:100AB000E394C8010E94E0048111FE28EE0C219706
:100AC000C1F78F2DDF91CF911F910F91FF90EF9084
:100AD0000895CF92DF92EF92FF920F931F93CF93DF
:100AE000DF931F92CDB7DEB77C01162F40E065E59E
:100AF00079830E940B05C12E7981D72E00E010E08A
:100B0000F60161916F0140E0C7010E940B050F5F84
:100B10001F4F08301105A1F70F90DF91CF911F9162
:100B20000F91FF90EF90DF90CF900895FC01138616
:100B30001586148627E030E0DF01A20FB31F13965D
:100B40001C922115310519F021503109F5CF089576
:100B50001F93CF93DF93EC01162F60E0812F0E944B
:100B60008507612F70E0FB01E458FE4FE491E883B4
:100B7000FB01E057FE4FE491F0E0EE0FFF1FEC5554
:100B8000FE4F859194919A838983CE01DF91CF9115
:100B90001F910C949605AF92BF92CF92DF92EF9285
:100BA000FF920F931F93CF93DF931F92CDB7DEB7C2
:100BB0005C01E62ED72EFC01858581115DC0C50143
:100BC0000E946E04811105C0F501138615861486F6
:100BD0006EC040E060EFC5010E940B0501E0F12C02
:100BE000C12C11E0C5010E94E004682FC501698392
:100BF0000E94E0046981613019F48130B9F433C096
:100C00002F2D30E068131BC0F5018385181730F4D1
:100C1000E20FF31F8381802349F402C0181731F0DB
:100C200060E0193058F4F501148708C0F501EF0DA4
:100C3000F11D8381802B838361E009C0C12EF50102
:100C4000E20FF31F8381902F909589238383C50141
:100C50000E94AD041F5F000F11F4F39401E0F7E070
:100C6000FF1508F0BFCF113438F0F501C386C1106D
:100C700018C081E0858715C0F50113861586148696
:100C800080E0EE2DFD2D20E030E0D501A20FB31F56
:100C900013969C9191932F5F3F4F28303105A9F710
:100CA00006C0F5018381882339F381E0EACF0F90F4
:100CB000DF91CF911F910F91FF90EF90DF90CF9038
:100CC000BF90AF900895DC0180E0615038F0ED9165
:100CD000E827F0E0E859FF4F8491F7CF08951F927D
:100CE0000F920FB60F9211242F933F938F939F93E0
:100CF000AF93BF9380914F0190915001A09151010A
:100D0000B091520130914E0123E0230F2D3720F492
:100D10000196A11DB11D05C026E8230F0296A11D55
:100D2000B11D20934E0180934F0190935001A093E9
:100D30005101B09352018091530190915401A091BF
:100D40005501B09156010196A11DB11D809353012B
:100D500090935401A0935501B0935601BF91AF9168
:100D60009F918F913F912F910F900FBE0F901F90E9
:100D700018953FB7F8948091530190915401A09138
:100D80005501B091560126B5A89B05C02F3F19F01B
:100D90000196A11DB11D3FBF6627782F892F9A2F7D
:100DA000620F711D811D911D42E0660F771F881F24
:100DB000991F4A95D1F708958F929F92AF92BF9253
:100DC000CF92DF92EF92FF926B017C010E94B906F5
:100DD0004B015C01C114D104E104F104F1F00E9463
:100DE00004080E94B906681979098A099B09683EB6
:100DF00073408105910570F321E0C21AD108E10822
:100E0000F10888EE880E83E0981EA11CB11CC11465
:100E1000D104E104F10429F7DDCFFF90EF90DF90DA
:100E2000CF90BF90AF909F908F90089582309105A2
:100E300038F0880F991F880F991F05970197F1F7D0
:100E40000895789484B5826084BD84B5816084BD42
:100E500085B5826085BD85B5816085BDEEE6F0E033
:100E6000808181608083E1E8F0E01082808182608F
:100E70008083808181608083E0E8F0E08081816010
:100E80008083E1EBF0E0808184608083E0EBF0E040
:100E9000808181608083EAE7F0E0808184608083E4
:100EA000808182608083808181608083808180688E
:100EB00080831092C1000895833081F028F481303E
:100EC00099F08230A1F008958730A9F08830B9F008
:100ED0008430D1F4809180008F7D03C080918000A8
:100EE0008F7780938000089584B58F7702C084B592
:100EF0008F7D84BD08958091B0008F7703C080916D
:100F0000B0008F7D8093B0000895CF93DF9390E081
:100F1000FC01E458FE4F2491FC01E057FE4F849100
:100F2000882349F190E0880F991FFC01E854FE4F97
:100F3000A591B49182559E4FFC01C591D4919FB764
:100F4000611108C0F8948C91209582238C9388813C
:100F500082230AC0623051F4F8948C91322F30957C
:100F600083238C938881822B888304C0F8948C918E
:100F7000822B8C939FBFDF91CF9108950F931F9386
:100F8000CF93DF931F92CDB7DEB7282F30E0F90162
:100F9000E859FE4F8491F901E458FE4F1491F9018C
:100FA000E057FE4F04910023C9F0882321F06983A4
:100FB0000E945C076981E02FF0E0EE0FFF1FE25511
:100FC000FE4FA591B4919FB7F8948C91611103C025
:100FD0001095812301C0812B8C939FBF0F90DF91CF
:100FE000CF911F910F91089508950E9421070E94AB
:100FF000F4070E94B901C0E0D0E00E947703209777
:10100000E1F30E940000F9CF08955058BB27AA27AA
:101010000ED008C1F9D030F0FED020F031F49F3F5F
:1010200011F41EF4EEC00EF4E095E7FBE4C0E92FE6
:101030000AD180F3BA17620773078407950718F07F
:1010400071F49EF522C10EF4E0950B2EBA2FA02D5F
:101050000B01B90190010C01CA01A0011124FF2765
:10106000591B99F0593F50F4503E68F11A16F04060
:10107000A22F232F342F4427585FF3CF469537955F
:101080002795A795F0405395C9F77EF41F16BA0B24
:10109000620B730B840BBAF09150A1F0FF0FBB1FD2
:1010A000661F771F881FC2F70EC0BA0F621F731F1B
:1010B000841F48F4879577956795B795F7959E3F78
:1010C00008F0B3CF9395880F08F09927EE0F979506
:1010D000879508956CD008F481E00895BCD088F01D
:1010E0009F5790F0B92F9927B751A0F0D1F0660F14
:1010F000771F881F991F1AF0BA95C9F712C0B1302F
:1011000081F0C3D0B1E00895C0C0672F782F882741
:10111000B85F39F0B93FCCF3869577956795B3956D
:10112000D9F73EF490958095709561957F4F8F4FDC
:101130009F4F0895E89409C097FB3EF490958095E1
:10114000709561957F4F8F4F9F4F9923A9F0F92F8D
:1011500096E9BB279395F695879577956795B7950B
:10116000F111F8CFFAF4BB0F11F460FF1BC06F5FF1
:101170007F4F8F4F9F4F16C0882311F096E911C003
:10118000772321F09EE8872F762F05C0662371F024
:1011900096E8862F70E060E02AF09A95660F771F38
:1011A000881FDAF7880F9695879597F90895990F14
:1011B0000008550FAA0BE0E8FEEF16161706E80721
:1011C000F907C0F012161306E407F50798F0621B42
:1011D000730B840B950B39F40A2661F0232B242B17
:1011E000252B21F408950A2609F4A140A6958FEF36
:1011F000811D811D089597F99F6780E870E060E088
:1012000008959FEF80EC089500240A94161617069F
:1012100018060906089500240A94121613061406E7
:1012200005060895092E0394000C11F4882352F04A
:10123000BB0F40F4BF2B11F460FF04C06F5F7F4F02
:101240008F4F9F4F089557FD9058440F551F59F0E9
:101250005F3F71F04795880F97FB991F61F09F3FA3
:1012600079F087950895121613061406551FF2CFCC
:101270004695F1DF08C0161617061806991FF1CF1C
:1012800086957105610508940895E894BB27662743
:101290007727CB0197F908958ADF08F48FEF089537
:1012A0000BD0C0CFB1DF28F0B6DF18F0952309F0DE
:1012B000A2CFA7CF1124EACFC6DFA0F3959FD1F329
:1012C000950F50E0551F629FF001729FBB27F00DF4
:1012D000B11D639FAA27F00DB11DAA1F649F662749
:1012E000B00DA11D661F829F2227B00DA11D621F98
:1012F000739FB00DA11D621F839FA00D611D221F52
:10130000749F3327A00D611D231F849F600D211D35
:10131000822F762F6A2F11249F5750408AF0E1F0D8
:1013200088234AF0EE0FFF1FBB1F661F771F881F21
:1013300091505040A9F79E3F510570F05CCFA6CF69
:101340005F3FECF3983EDCF3869577956795B7950C
:10135000F795E7959F5FC1F7FE2B880F911D969536
:10136000879597F90895AA1BBB1B51E107C0AA1FD7
:10137000BB1FA617B70710F0A61BB70B881F991F36
:101380005A95A9F780959095BC01CD010895EE0F6F
:10139000FF1F0590F491E02D0994F999FECF92BDBD
:1013A00081BDF89A992780B50895A8E1B0E042E0A0
:1013B00050E00C94F009262FF999FECF1FBA92BD88
:1013C00081BD20BD0FB6F894FA9AF99A0FBE019626
:1013D00008950E94DB09272F0C94DC09DC01CB0166
:1013E000FC01F999FECF06C0F2BDE1BDF89A319635
:1013F00000B40D9241505040B8F70895F894FFCFD3
:02140000FA05EB
:00000001FF
