:100000000C94E2000C940A010C940A010C940A016D
:100010000C940A010C940A010C940A010C940A0134
:100020000C940A010C940A010C940A010C940A0124
:100030000C940A010C940A010C940A010C940A0114
:100040000C948A060C940A010C945D020C940A012B
:100050000C940A010C940A010C940A010C940A01F4
:100060000C940A010C940A01005EBCE2613FDD833E
:10007000C29C7E20A3FD1F419DC3217FFCA2401E88
:100080005F01E3BD3E6082DC237D9FC1421CFEA078
:10009000E1BF5D0380DE3C62BEE0025CDF81633D68
:1000A0007C22C09E1D43A1FF4618FAA427799BC558
:1000B00084DA3866E5BB5907DB856739BAE4065848
:1000C0001947A5FB7826C49A653BD987045AB8E638
:1000D000A7F91B45C6987A24F8A6441A99C7257B28
:1000E0003A6486D85B05E7B98CD2306EEDB3510F18
:1000F0004E10F2AC2F7193CD114FADF3702ECC9208
:10010000D38D6F31B2EC0E50AFF1134DCE90722CF7
:100110006D33D18F0C52B0EE326C8ED0530DEFB1E7
:10012000F0AE4C1291CF2D73CA947628ABF51749D7
:100130000856B4EA6937D58B5709EBB536688AD4C7
:1001400095CB2977F4AA4816E9B7550B88D6346AB7
:100150002B7597C94A14F6A8742AC896154BA9F7A7
:10016000B6E80A54D7896B35000000080002010088
:100170000003040700000000000000000102040862
:100180001020408001020408102001020408102001
:10019000040404040404040402020202020203032D
:1001A00003030303000000002300260029000000D1
:1001B0000000250028002B0000000000240027007C
:1001C0002A00840411241FBECFEFD8E0DEBFCDBFCC
:1001D00011E0A0E0B1E0E6E0F5E102C005900D928B
:1001E000A030B107D9F721E0A0E0B1E001C01D9235
:1001F000A735B207E1F711E0C4ECD1E004C02297C3
:10020000FE010E944C0AC23CD107C9F70E941008A7
:100210000C94810A0C94000080E491E00E9489040F
:1002200068E371E080E491E00E94840541E064E4C9
:1002300080E491E00C942605CF93DF9380E491E075
:100240000E94890468E371E080E491E00E948405E3
:1002500040E06EEB80E491E00E942605CCE2D1E024
:1002600080E491E00E946805899381E0C533D80756
:10027000B9F768E088E391E00E947E06909135012D
:10028000891721F081E08093030102C010920301DD
:1002900020912D0130E0322F222780912C01282B34
:1002A00037FF05C0319521953109D1E001C0D0E07B
:1002B00044E050E080E090E0C1E0E1E7F2E06C2F44
:1002C00070E0DB01A223B323AB2B49F06E9FD0017A
:1002D0006F9FB00D7E9FB00D11248A0F9B1FCC0F16
:1002E0004150510961F7A90124E0569547952A9597
:1002F000E1F7DD2389F02AE0249FB001259F700DEE
:10030000112420E035E0261B370B68EE73E00E94D5
:10031000360A261B370B0DC06AE0649F9001659F6B
:10032000300D11243B5F68EE73E00E94360A260F01
:10033000371FC901DF91CF91089580917A008064C1
:1003400080937A0080917A0086FDFCCF60917800DE
:100350007091790080E090E00E941D092EEA37E25A
:1003600042EA53E40E94200826EF38E24CE95FE3BA
:100370000E94890820E030E040E251E40E94D30965
:1003800020E030E040EA54E40E9421080E94F10895
:10039000CB0108959091C00095FFFCCF8093C600DB
:1003A0000895E8E1F1E0119281E0E332F807D9F72E
:1003B000109204010895ECE0F1E0A8E1B1E011929F
:1003C0001D9281E0E731F807D1F70895CF93DF93CD
:1003D00061E085E00E94A00760E085E00E94D90707
:1003E0001092C50087E68093C4008091C10088699F
:1003F0008093C1008091C20086608093C2000E94F9
:10040000DB0168E371E080E491E00E94E605811180
:1004100003C081E08093020167E088E391E00E94DD
:100420007E0690913F01891719F081E080930201C7
:1004300080913801883219F081E08093020188ECC4
:1004400080937C0080917A00806880937A0081E0BC
:1004500090E00E94580AEC019093070180930601F6
:1004600080E090E00E94500A80930101CC50D3407C
:10047000C93ED34030F020E035E0309307012093AF
:100480000601823010F0109201010E940C016CEF05
:1004900073E080E090E00E94F7060E941C019093B8
:1004A0000B0180930A010E949D01909309018093A2
:1004B00008017894DF91CF9108951F920F920FB6A3
:1004C0000F9211242F933F934F935F936F938F93CA
:1004D0009F93EF93FF9380910501882321F08091F2
:1004E000C60090E009C08091C6008093180181E0A9
:1004F0008093040180E090E021E030E051E0409101
:100500000501411125C04091C00047FD0CC080315C
:1005100047E2940719F45093050105C00196F901CB
:100520003197F1F7F0CF40910501411111C0409191
:1005300004016091C600E42FF0E0E85EFE4F6083A6
:100540004F5F409304014B30D0F281E0809305016E
:10055000FF91EF919F918F916F915F914F913F919B
:100560002F910F900FBE0F901F901895EF92FF9252
:100570000F931F93CF93DF931F92CDB7DEB70CE09D
:1005800011E078018E2D801B861740F4F7018191D0
:100590007F0169830E94CA016981F4CF0F90DF91C6
:1005A000CF911F910F91FF90EF900895FC018FEF75
:1005B00021E3615060F09191892798E087FF03C0A3
:1005C000880F822701C0880F9150C1F7F2CF08959C
:1005D00084E680930C0180910A0190910B01909325
:1005E0000D0180930E018091080190910901909373
:1005F0000F01809310018091060190910701909363
:100600001101809312018091000180931301809168
:10061000020190910301892B8093140180910101C3
:10062000809315016AE08CE091E00E94D6028093ED
:1006300016010895CF93F894C09104016FEF6C0FE9
:1006400088E191E00E94D602EC2FF0E0E95EFE4FD7
:10065000908189135AC080911801893679F118F474
:10066000873639F052C0803709F443C0833741F0F0
:100670004CC0C23009F049C00E94E8026BE034C0AF
:10068000C43009F042C08091190190E0982F88276A
:1006900020911A01822B9C012C503340293E33407B
:1006A00020F49093070180930601609106017091F8
:1006B000070181E090E00E946C0A27C0C23029F552
:1006C00086E780930C0181E080930D0180930E01F9
:1006D000C0930F018093100165E08CE091E00E94CF
:1006E000D6028093110166E08CE091E00E94B60290
:1006F0000CC0C33051F460911901623030F4609342
:10070000010180E090E00E945E0A109205010E94C3
:10071000D1017894CF910895CF92DF92EF92FF921A
:100720008091050181110E941A03809102018111BB
:10073000E0C00E940C0180910101811116C010924D
:100740000001109228011092290110922A011092A2
:100750002B01109224011092250110922601109273
:10076000270160E085E00E94D90780910301811193
:10077000BAC080910101813009F0B5C060910A01D1
:1007800070910B0180E090E00E941D096B017C01DB
:10079000609106017091070180E090E00E941D09C0
:1007A0009B01AC01C701B6010E942008609324019F
:1007B0007093250180932601909327012AE037ED5D
:1007C00043E25DE30E94D309209128013091290181
:1007D00040912A0150912B010E9421086B017C015C
:1007E00020E030E04FE754E40E94CF0918166CF483
:1007F00080E090E0AFE7B4E4809328019093290172
:10080000A0932A01B0932B011AC020E030E0A90187
:10081000C701B6010E94850887FD09C0C092280162
:10082000D0922901E0922A01F0922B0108C0109287
:1008300028011092290110922A0110922B0120E028
:1008400030E0A901609128017091290180912A016D
:1008500090912B010E94CF09181624F461E085E0E5
:100860000E94D907609128017091290180912A0185
:1008700090912B010E94F1080E94F70660912801D7
:100880007091290180912A0190912B010E94F10819
:100890006C3F734021F060E085E00E94D907209111
:1008A00028013091290140912A0150912B0160E0EB
:1008B00070E08FE794E40E9420080E94F1080E94F3
:1008C000F70620E030E040E85EE360912801709197
:1008D000290180912A0190912B010E94D3090E9445
:1008E000F108609300010E941C0190930B0180931A
:1008F0000A010E949D019093090180930801FF90D5
:10090000EF90DF90CF90089560E180E491E00C9447
:10091000C305FF920F931F93CF93DF93FC010081D8
:10092000C181D281F8948981F02EF0948F2189833E
:1009300078941DE7115029F182E090E00E94310780
:1009400088818023B9F3F8948A818F218A838981F1
:10095000802B8983789484EF91E00E943107F8948A
:1009600089818F21898380E590E00E943107888109
:10097000802311E009F010E0789484EA91E00E946D
:100980003107812FDF91CF911F910F91FF90089533
:100990001F93CF93DF93FC011081C181D281912FEE
:1009A000909560FF12C0F8948A8189238A83898197
:1009B000812B89838AE090E00E9431078A81812B14
:1009C0008A83789487E390E011C0F8948A81892320
:1009D0008A838981812B898381E490E00E94310799
:1009E0008A81812B8A83789485E090E0DF91CF9192
:1009F0001F910C9431070F931F93CF93DF93FC014A
:100A00001081C181D281F8948981812B89838A8167
:100A1000012F009580238A8383E090E00E943107B4
:100A20008981802389838AE090E00E943107C88110
:100A3000789485E390E00E9431071C2381E009F45B
:100A400080E0DF91CF911F910F910895CF92DF92B7
:100A5000EF92FF920F931F93CF93DF931F92CDB727
:100A6000DEB76C01E62E08E010E0FF24F39461E0AD
:100A70009F2D9E2109F460E0C60149830E94C804AD
:100A8000FF0C0150110949810115110581F7411130
:100A900015C0F894D6011196ED91FC9112979181B1
:100AA0008C918095892381831196ED91FC91129709
:100AB00092818C9180958923828378940F90DF9125
:100AC000CF911F910F91FF90EF90DF90CF900895FD
:100AD000EF92FF920F931F93CF93DF938C01C8E0A7
:100AE000D0E0F12CEE24E394C8010E94FB048111B4
:100AF000FE28EE0C2197C1F78F2DDF91CF911F912A
:100B00000F91FF90EF900895CF92DF92EF92FF92B6
:100B10000F931F93CF93DF931F92CDB7DEB77C0166
:100B2000162F40E065E579830E942605C12E798164
:100B3000D72E00E010E0F60161916F0140E0C7019F
:100B40000E9426050F5F1F4F08301105A1F70F9077
:100B5000DF91CF911F910F91FF90EF90DF90CF9099
:100B60000895FC0113861586148627E030E0DF0126
:100B7000A20FB31F13961C922115310519F02150B5
:100B80003109F5CF08951F93CF93DF93EC01162F12
:100B900060E0812F0E94A007612F70E0FB01E45804
:100BA000FE4FE491E883FB01E057FE4FE491F0E053
:100BB000EE0FFF1FEC55FE4F859194919A83898328
:100BC000CE01DF91CF911F910C94B105AF92BF92EE
:100BD000CF92DF92EF92FF920F931F93CF93DF9309
:100BE0001F92CDB7DEB75C01E62ED72EFC018585BE
:100BF00081115DC0C5010E948904811105C0F50104
:100C00001386158614866EC040E060EFC5010E9411
:100C1000260501E0F12CC12C11E0C5010E94FB0466
:100C2000682FC50169830E94FB046981613019F452
:100C30008130B9F433C02F2D30E068131BC0F501AB
:100C40008385181730F4E20FF31F8381802349F462
:100C500002C0181731F060E0193058F4F50114871C
:100C600008C0F501EF0DF11D8381802B838361E0C6
:100C700009C0C12EF501E20FF31F8381902F9095DB
:100C800089238383C5010E94C8041F5F000F11F4EC
:100C9000F39401E0F7E0FF1508F0BFCF113438F00E
:100CA000F501C386C11018C081E0858715C0F50124
:100CB00013861586148680E0EE2DFD2D20E030E0B1
:100CC000D501A20FB31F13969C9191932F5F3F4FB5
:100CD00028303105A9F706C0F5018381882339F34F
:100CE00081E0EACF0F90DF91CF911F910F91FF909C
:100CF000EF90DF90CF90BF90AF900895DC0180E03F
:100D0000615038F0ED91E827F0E0E859FF4F849109
:100D1000F7CF08951F920F920FB60F9211242F93C1
:100D20003F938F939F93AF93BF9380914F01909187
:100D30005001A0915101B091520130914E0123E038
:100D4000230F2D3720F40196A11DB11D05C026E803
:100D5000230F0296A11DB11D20934E0180934F01D8
:100D600090935001A0935101B0935201809153018F
:100D700090915401A0915501B09156010196A11D89
:100D8000B11D8093530190935401A0935501B093EA
:100D90005601BF91AF919F918F913F912F910F90ED
:100DA0000FBE0F901F9018953FB7F8948091530194
:100DB00090915401A0915501B091560126B5A89B80
:100DC00005C02F3F19F00196A11DB11D3FBF662739
:100DD000782F892F9A2F620F711D811D911D42E07E
:100DE000660F771F881F991F4A95D1F708958F9234
:100DF0009F92AF92BF92CF92DF92EF92FF926B01E0
:100E00007C010E94D4064B015C01C114D104E104B1
:100E1000F104F1F00E941F080E94D40668197909B4
:100E20008A099B09683E73408105910570F321E0B2
:100E3000C21AD108E108F10888EE880E83E0981EF6
:100E4000A11CB11CC114D104E104F10429F7DDCFC8
:100E5000FF90EF90DF90CF90BF90AF909F908F90DA
:100E600008958230910538F0880F991F880F991FD7
:100E700005970197F1F70895789484B5826084BD51
:100E800084B5816084BD85B5826085BD85B581608E
:100E900085BDEEE6F0E0808181608083E1E8F0E0EE
:100EA0001082808182608083808181608083E0E81D
:100EB000F0E0808181608083E1EBF0E080818460FC
:100EC0008083E0EBF0E0808181608083EAE7F0E0FE
:100ED0008081846080838081826080838081816062
:100EE00080838081806880831092C1000895833060
:100EF00081F028F4813099F08230A1F00895873094
:100F0000A9F08830B9F08430D1F4809180008F7DD1
:100F100003C0809180008F7780938000089584B50E
:100F20008F7702C084B58F7D84BD08958091B00015
:100F30008F7703C08091B0008F7D8093B0000895BB
:100F4000CF93DF9390E0FC01E458FE4F2491FC0125
:100F5000E057FE4F8491882349F190E0880F991F54
:100F6000FC01E854FE4FA591B49182559E4FFC01BF
:100F7000C591D4919FB7611108C0F8948C912095C8
:100F800082238C93888182230AC0623051F4F894C2
:100F90008C91322F309583238C938881822B888388
:100FA00004C0F8948C91822B8C939FBFDF91CF91DA
:100FB00008950F931F93CF93DF931F92CDB7DEB7A2
:100FC000282F30E0F901E859FE4F8491F901E458E7
:100FD000FE4F1491F901E057FE4F04910023C9F030
:100FE000882321F069830E9477076981E02FF0E070
:100FF000EE0FFF1FE255FE4FA591B4919FB7F894F5
:101000008C91611103C01095812301C0812B8C93B9
:101010009FBF0F90DF91CF911F910F910895089579
:101020000E943C070E940F080E94E601C0E0D0E049
:101030000E948C032097E1F30E940000F9CF0895ED
:101040005058BB27AA270ED070C161D130F066D1AD
:1010500020F031F49F3F11F41EF456C10EF4E095D8
:10106000E7FB4CC1E92F72D180F3BA17620773070F
:101070008407950718F071F49EF58AC10EF4E09587
:101080000B2EBA2FA02D0B01B90190010C01CA0142
:10109000A0011124FF27591B99F0593F50F4503EED
:1010A00068F11A16F040A22F232F342F4427585FDF
:1010B000F3CF469537952795A795F0405395C9F7F7
:1010C0007EF41F16BA0B620B730B840BBAF09150AF
:1010D000A1F0FF0FBB1F661F771F881FC2F70EC04E
:1010E000BA0F621F731F841F48F487957795679521
:1010F000B795F7959E3F08F0B3CF9395880F08F00A
:101100009927EE0F979587950895D4D008F481E03C
:1011100008950CD00AC102D140F0F9D030F021F48A
:101120005F3F19F0EBC0511134C1EEC00FD198F3FD
:101130009923C9F35523B1F3951B550BBB27AA2758
:1011400062177307840738F09F5F5F4F220F331FCA
:10115000441FAA1FA9F333D00E2E3AF0E0E830D096
:1011600091505040E695001CCAF729D0FE2F27D099
:10117000660F771F881FBB1F261737074807AB0767
:10118000B0E809F0BB0B802DBF01FF2793585F4FDC
:101190002AF09E3F510568F0B1C0FBC05F3FECF301
:1011A000983EDCF3869577956795B795F7959F5FA1
:1011B000C9F7880F911D9695879597F90895E1E0F5
:1011C000660F771F881FBB1F621773078407BA0754
:1011D00020F0621B730B840BBA0BEE1F88F7E095AF
:1011E0000895BCD088F09F5790F0B92F9927B75138
:1011F000A0F0D1F0660F771F881F991F1AF0BA95DB
:10120000C9F712C0B13081F0C3D0B1E00895C0C0B9
:10121000672F782F8827B85F39F0B93FCCF38695D0
:1012200077956795B395D9F73EF49095809570952D
:1012300061957F4F8F4F9F4F0895E89409C097FBAA
:101240003EF490958095709561957F4F8F4F9F4F9D
:101250009923A9F0F92F96E9BB279395F6958795E1
:1012600077956795B795F111F8CFFAF4BB0F11F4A4
:1012700060FF1BC06F5F7F4F8F4F9F4F16C088234B
:1012800011F096E911C0772321F09EE8872F762F81
:1012900005C0662371F096E8862F70E060E02AF0C2
:1012A0009A95660F771F881FDAF7880F96958795AE
:1012B00097F90895990F0008550FAA0BE0E8FEEF83
:1012C00016161706E807F907C0F012161306E4070A
:1012D000F50798F0621B730B840B950B39F40A2603
:1012E00061F0232B242B252B21F408950A2609F4E1
:1012F000A140A6958FEF811D811D089597F99F67E5
:1013000080E870E060E008959FEF80EC089500248D
:101310000A941616170618060906089500240A945A
:1013200012161306140605060895092E0394000CE0
:1013300011F4882352F0BB0F40F4BF2B11F460FF6F
:1013400004C06F5F7F4F8F4F9F4F089557FD905898
:10135000440F551F59F05F3F71F04795880F97FB79
:10136000991F61F09F3F79F0879508951216130633
:101370001406551FF2CF4695F1DF08C01616170662
:101380001806991FF1CF8695710561050894089597
:10139000E894BB2766277727CB0197F908958ADF62
:1013A00008F48FEF08950BD0C0CFB1DF28F0B6DF7F
:1013B00018F0952309F0A2CFA7CF1124EACFC6DFFA
:1013C000A0F3959FD1F3950F50E0551F629FF00158
:1013D000729FBB27F00DB11D639FAA27F00DB11DB1
:1013E000AA1F649F6627B00DA11D661F829F22273A
:1013F000B00DA11D621F739FB00DA11D621F839FC1
:10140000A00D611D221F749F3327A00D611D231F96
:10141000849F600D211D822F762F6A2F11249F57E4
:1014200050408AF0E1F088234AF0EE0FFF1FBB1F07
:10143000661F771F881F91505040A9F79E3F5105A6
:1014400070F05CCFA6CF5F3FECF3983EDCF386955F
:1014500077956795B795F795E7959F5FC1F7FE2B51
:10146000880F911D9695879597F90895AA1BBB1B28
:1014700051E107C0AA1FBB1FA617B70710F0A61B94
:10148000B70B881F991F5A95A9F780959095BC01B5
:10149000CD010895EE0FFF1F0590F491E02D099402
:1014A000F999FECF92BD81BDF89A992780B508952C
:1014B000A8E1B0E042E050E00C94730A262FF999BD
:1014C000FECF1FBA92BD81BD20BD0FB6F894FA9A27
:1014D000F99A0FBE019608950E945E0A272F0C9478
:1014E0005F0ADC01CB01FC01F999FECF06C0F2BD19
:1014F000E1BDF89A319600B40D9241505040B8F7D2
:061500000895F894FFCFEE
:107800000C94343C0C94513C0C94513C0C94513CE1
:107810000C94513C0C94513C0C94513C0C94513CB4
:107820000C94513C0C94513C0C94513C0C94513CA4
:107830000C94513C0C94513C0C94513C0C94513C94
:107840000C94513C0C94513C0C94513C0C94513C84
:107850000C94513C0C94513C0C94513C0C94513C74
:107860000C94513C0C94513C11241FBECFEFD8E036
:10787000DEBFCDBF11E0A0E0B1E0ECE9FFE702C060
:1078800005900D92A230B107D9F712E0A2E0B1E065
:1078900001C01D92AD30B107E1F70E942D3D0C945F
:1078A000CC3F0C94003C982F959595959595959582
:1078B000905D8F708A307CF0282F295A8091C0000B
:1078C00085FFFCCF9093C6008091C00085FFFCCF60
:1078D0002093C6000895282F205DF0CF982F809127
:1078E000C00085FFFCCF9093C6000895EF92FF92F1
:1078F0000F931F93EE24FF2487018091C00087FD22
:1079000017C00894E11CF11C011D111D81E4E8164B
:1079100082E4F8068FE0080780E0180770F3E09132
:107920000401F091050109958091C00087FFE9CF1E
:107930008091C6001F910F91FF90EF9008950E94D3
:10794000763C982F8091C00085FFFCCF9093C600B5
:1079500091362CF490330CF09053892F089597555D
:10796000892F08951F930E949F3C182F0E949F3CCF
:107970001295107F810F1F9108951F93182F882350
:1079800021F00E94763C1150E1F71F9108951F935A
:10799000182F0E94763C803249F0809103018F5F5E
:1079A000809303018530C1F01F9108958091C0003C
:1079B00085FFFCCF84E18093C6008091C00085FFE5
:1079C000FCCF1093C6008091C00085FFFCCF80E102
:1079D0008093C6001F910895E0910401F091050184
:1079E00009951F9108950E94763C803241F0809164
:1079F00003018F5F80930301853081F008958091AA
:107A0000C00085FFFCCF84E18093C6008091C00058
:107A100085FFFCCF80E18093C6000895E0910401CA
:107A2000F09105010995089540E951E08823A1F0FE
:107A30002D9A28EE33E0FA013197F1F721503040CA
:107A4000D1F72D9828EE33E0FA013197F1F7215064
:107A50003040D1F7815061F708953F924F925F9285
:107A60006F927F928F929F92AF92BF92CF92DF924E
:107A7000EF92FF920F931F93CF93DF93000080E16B
:107A80008093C4001092C50088E18093C10086E015
:107A90008093C2005098589A259A81E00E94143D24
:107AA00024E1F22E9EE1E92E85E9D82E0FE0C02ECA
:107AB00010E1B12EAA24A394B1E49B2EA6E58A2E50
:107AC000F2E57F2EE0E26E2E79E4572E63E5462E36
:107AD00050E5352E0E94763C8033B1F18133B9F107
:107AE000803409F46FC0813409F476C0823409F41B
:107AF00085C0853409F488C0803531F1823521F1A3
:107B0000813511F1853509F485C0863509F48DC0BC
:107B1000843609F496C0843709F403C1853709F423
:107B200072C1863709F466C0809103018F5F80932C
:107B30000301853079F6E0910401F0910501099582
:107B40000E94763C803351F60E94F33CC3CF0E94E2
:107B5000763C803249F78091C00085FFFCCFF092DF
:107B6000C6008091C00085FFFCCF9092C600809136
:107B7000C00085FFFCCF8092C6008091C00085FFC9
:107B8000FCCF7092C6008091C00085FFFCCF609250
:107B9000C6008091C00085FFFCCF5092C600809146
:107BA000C00085FFFCCF4092C6008091C00085FFD9
:107BB000FCCF3092C6008091C00085FFFCCFB09210
:107BC000C60088CF0E94763C863808F4BDCF0E945C
:107BD000763C0E94F33C7ECF0E94763C803809F4CC
:107BE0009CC0813809F40BC1823809F43CC1883942
:107BF00009F48FC080E00E94C73C6CCF84E10E94F2
:107C0000BD3C0E94F33C66CF85E00E94BD3C0E94D3
:107C1000F33C60CF0E94763C809306010E94763C44
:107C2000809307010E94F33C55CF0E94763C80333D
:107C300009F41DC183E00E94BD3C80E00E94C73C66
:107C400049CF0E94763C809309020E94763C809343
:107C5000080280910C028E7F80930C020E94763C79
:107C6000853409F415C18091080290910902892B8D
:107C700089F000E010E00E94763CF801E85FFE4FDA
:107C800080830F5F1F4F80910802909109020817AF
:107C9000190788F30E94763C803209F045CF809125
:107CA0000C0280FF01C16091060170910701660F0F
:107CB000771F7093070160930601A0910802B091AD
:107CC00009021097C9F0E8E0F1E09B01AD014E0F09
:107CD0005F1FF999FECF32BD21BD819180BDFA9A17
:107CE000F99A2F5F3F4FE417F50799F76A0F7B1F4B
:107CF00070930701609306018091C00085FFFCCF5F
:107D0000F092C6008091C00085FFFCCFB092C60003
:107D1000E1CE83E00E94C73CDDCE82E00E94C73CFA
:107D2000D9CE0E94763C809309020E94763C8093D3
:107D300008028091060190910701880F991F909386
:107D40000701809306010E94763C853409F4A6C0A1
:107D500080910C028E7F80930C020E94763C8032D0
:107D600009F0B8CE8091C00085FFFCCFF092C6002C
:107D7000609108027091090261157105B9F140E046
:107D800050E080910C02A82FA170B82FB27011C0E2
:107D9000BB2309F45CC0E0910601F0910701319624
:107DA000F0930701E09306014F5F5F4F46175707B7
:107DB000E8F4AA2369F3F999FECF209106013091E6
:107DC000070132BD21BDF89A90B58091C00085FFB2
:107DD000FCCF9093C6002F5F3F4F30930701209355
:107DE00006014F5F5F4F4617570718F38091C00099
:107DF00085FDE5CE8091C00085FFF8CFE0CE81E023
:107E00000E94C73C67CE0E94763C803209F08CCE3F
:107E10008091C00085FFFCCFF092C6008091C00029
:107E200085FFFCCFE092C6008091C00085FFFCCFAB
:107E3000D092C6008091C00085FFFCCFC092C600E2
:107E40008091C00085FFFCCFB092C60043CEE09188
:107E50000601F091070194918091C00085FFFCCF4D
:107E60009093C6009CCF80E10E94C73C33CE0E9415
:107E7000763C0E94763C182F0E94763C112309F430
:107E800083C0113009F484C08FE00E94C73C22CE29
:107E900080910C02816080930C02E5CE80910C02EF
:107EA000816080930C0259CF809107018823880F4D
:107EB000880B8A2180930B02809106019091070123
:107EC000880F991F90930701809306018091080203
:107ED00080FF09C080910802909109020196909359
:107EE000090280930802F894F999FECF1127E091D6
:107EF0000601F0910701C8E0D1E08091080290915D
:107F00000902103091F40091570001700130D9F34B
:107F100003E000935700E89500915700017001308D
:107F2000D9F301E100935700E89509901990009169
:107F3000570001700130D9F301E000935700E89534
:107F40001395103498F011270091570001700130FB
:107F5000D9F305E000935700E895009157000170B0
:107F60000130D9F301E100935700E895329602976A
:107F700009F0C7CF103011F00296E5CF112480919F
:107F8000C00085FFB9CEBCCE8EE10E94C73CA2CD19
:0C7F900085E90E94C73C9ECDF894FFCF0D
:027F9C00800063
:040000030000780081
:00000001FF
