:100000000C94E2000C940A010C940A010C940A016D
:100010000C940A010C940A010C940A010C940A0134
:100020000C940A010C940A010C940A010C940A0124
:100030000C940A010C940A010C940A010C940A0114
:100040000C9450060C940A010C9422020C940A01A0
:100050000C940A010C940A010C940A010C940A01F4
:100060000C940A010C940A01005EBCE2613FDD833E
:10007000C29C7E20A3FD1F419DC3217FFCA2401E88
:100080005F01E3BD3E6082DC237D9FC1421CFEA078
:10009000E1BF5D0380DE3C62BEE0025CDF81633D68
:1000A0007C22C09E1D43A1FF4618FAA427799BC558
:1000B00084DA3866E5BB5907DB856739BAE4065848
:1000C0001947A5FB7826C49A653BD987045AB8E638
:1000D000A7F91B45C6987A24F8A6441A99C7257B28
:1000E0003A6486D85B05E7B98CD2306EEDB3510F18
:1000F0004E10F2AC2F7193CD114FADF3702ECC9208
:10010000D38D6F31B2EC0E50AFF1134DCE90722CF7
:100110006D33D18F0C52B0EE326C8ED0530DEFB1E7
:10012000F0AE4C1291CF2D73CA947628ABF51749D7
:100130000856B4EA6937D58B5709EBB536688AD4C7
:1001400095CB2977F4AA4816E9B7550B88D6346AB7
:100150002B7597C94A14F6A8742AC896154BA9F7A7
:10016000B6E80A54D7896B35000000080002010088
:100170000003040700000000000000000102040862
:100180001020408001020408102001020408102001
:10019000040404040404040402020202020203032D
:1001A00003030303000000002300260029000000D1
:1001B0000000250028002B0000000000240027007C
:1001C0002A004A0411241FBECFEFD8E0DEBFCDBF06
:1001D00011E0A0E0B1E0E2E9F4E102C005900D9287
:1001E000A030B107D9F721E0A0E0B1E001C01D9235
:1001F000A535B207E1F711E0C4ECD1E004C02297C5
:10020000FE010E94120AC23CD107C9F70E94D6071C
:100210000C94470A0C9400008EE391E00E944F0476
:1002200066E371E08EE391E00E944A0541E064E4F8
:100230008EE391E00C94EC04CF93DF938EE391E096
:100240000E944F0466E371E08EE391E00E944A054C
:1002500040E06EEB8EE391E00E94EC04CAE2D1E054
:100260008EE391E00E942E05899381E0C333D80785
:10027000B9F768E086E391E00E944406909133016B
:10028000891721F081E08093030102C010920301DD
:1002900020912B0130E0322F222780912A01282B38
:1002A00037FF05C0319521953109D1E001C0D0E07B
:1002B00044E050E080E090E0C1E0E1E7F2E06C2F44
:1002C00070E0DB01A223B323AB2B49F06E9FD0017A
:1002D0006F9FB00D7E9FB00D11248A0F9B1FCC0F16
:1002E0004150510961F7A90124E0569547952A9597
:1002F000E1F7DD2389F02AE0249FB001259F700DEE
:10030000112420E035E0261B370B68EE73E00E94D5
:10031000FC09261B370B0DC06AE0649F9001659FA6
:10032000300D11243B5F68EE73E00E94FC09260F3C
:10033000371FC901DF91CF9108959091C00095FFBB
:10034000FCCF8093C6000895E6E1F1E0119281E0D0
:10035000E132F807D9F7109204010895EAE0F1E0DC
:10036000A6E1B1E011921D9281E0E531F807D1F7E5
:100370000895CF93DF9361E085E00E94660760E017
:1003800085E00E949F071092C50087E68093C40015
:100390008091C10088698093C1008091C20086600D
:1003A0008093C2000E94AE0166E371E08EE391E0AB
:1003B0000E94AC05811103C081E08093020167E0D7
:1003C00086E391E00E94440690913D01891719F05F
:1003D00081E08093020180913601883219F081E03A
:1003E0008093020181E090E00E941E0AEC0190934C
:1003F00007018093060180E090E00E94160A809336
:100400000101CC50D340C93ED34030F020E035E06C
:100410003093070120930601823010F01092010101
:100420000E940C0168EE73E080E090E00E94BD063F
:100430000E941C0190930901809308017894DF9138
:10044000CF9108951F920F920FB60F9211242F9300
:100450003F934F935F936F938F939F93EF93FF938C
:1004600080910501882321F08091C60090E009C0A9
:100470008091C6008093160181E08093040180E0A2
:1004800090E021E030E051E040910501411125C0AC
:100490004091C00047FD0CC0803147E2940719F439
:1004A0005093050105C00196F9013197F1F7F0CF9E
:1004B00040910501411111C0409104016091C600B5
:1004C000E42FF0E0EA5EFE4F60834F5F409304014B
:1004D0004B30D0F281E080930501FF91EF919F9125
:1004E0008F916F915F914F913F912F910F900FBE20
:1004F0000F901F901895EF92FF920F931F93CF9339
:10050000DF931F92CDB7DEB70AE011E078018E2DA0
:10051000801B861740F4F70181917F0169830E9457
:100520009D016981F4CF0F90DF91CF911F910F91C1
:10053000FF90EF900895FC018FEF21E3615060F090
:100540009191892798E087FF03C0880F822701C017
:10055000880F9150C1F7F2CF089584E680930A0185
:10056000809108019091090190930B0180930C01F7
:1005700085E080930D018AEF80930E018091060142
:100580009091070190930F018093100180910001D9
:10059000809311018091020190910301892B809336
:1005A000120180910101809313016AE08AE091E0D9
:1005B0000E949B02809314010895CF93F894C091F8
:1005C00004016FEF6C0F86E191E00E949B02EC2F1B
:1005D000F0E0EB5EFE4F908189135AC080911601C6
:1005E000893679F118F4873639F052C0803709F42A
:1005F00043C0833741F04CC0C23009F049C00E946B
:10060000AD026BE034C0C43009F042C080911701E4
:1006100090E0982F882720911801822B9C012C5064
:100620003340293E334020F4909307018093060124
:10063000609106017091070181E090E00E94320A0A
:1006400027C0C23029F586E780930A0181E08093B4
:100650000B0180930C01C0930D0180930E0165E0A6
:100660008AE091E00E949B0280930F0166E08AE09D
:1006700091E00E947B020CC0C33051F460911701DD
:10068000623030F46093010180E090E00E94240A1F
:10069000109205010E94A4017894CF910895CF9201
:1006A000DF92EF92FF928091050181110E94DD029D
:1006B000809102018111E9C00E940C018091010129
:1006C000811116C01092000110922601109227018C
:1006D00010922801109229011092220110922301F8
:1006E000109224011092250160E085E00E949F078E
:1006F000809103018111C3C080910101813009F013
:10070000BEC00E941C019093090180930801BC01A6
:1007100080E090E00E94E3086B017C01609106019B
:100720007091070180E090E00E94E3089B01AC011A
:10073000C701B6010E94E60760932201709323016E
:1007400080932401909325012AE037ED43E25DE395
:100750000E9499092091260130912701409128019A
:10076000509129010E94E7076B017C0120E030E0F5
:100770004AE754E40E94950918166CF480E090E072
:10078000AAE7B4E48093260190932701A09328015F
:10079000B09329011AC020E030E0A901C701B601D9
:1007A0000E944B0887FD09C0C0922601D092270104
:1007B000E0922801F092290108C0109226011092BF
:1007C0002701109228011092290120E030E0A901B0
:1007D0006091260170912701809128019091290153
:1007E0000E949509181624F461E085E00E949F0795
:1007F0006091260170912701809128019091290133
:100800000E94B7080E94BD066091260170912701E1
:1008100080912801909129010E94B708683E734099
:1008200021F060E085E00E949F0720912601309131
:100830002701409128015091290160E070E08AE78A
:1008400094E40E94E6070E94B7080E94BD0620E0DB
:1008500030E048EC52E460912601709127018091CC
:100860002801909129010E94990920E030E04AE78F
:1008700054E40E944F080E94B708609300010E9450
:100880001C019093090180930801FF90EF90DF9085
:10089000CF90089560E18EE391E00C948905FF927A
:1008A0000F931F93CF93DF93FC010081C181D2810D
:1008B000F8948981F02EF0948F21898378941DE734
:1008C000115029F182E090E00E94F7068881802390
:1008D000B9F3F8948A818F218A838981802B898357
:1008E000789484EF91E00E94F706F89489818F2133
:1008F000898380E590E00E94F7068881802311E0DB
:1009000009F010E0789484EA91E00E94F706812FC4
:10091000DF91CF911F910F91FF9008951F93CF9377
:10092000DF93FC011081C181D281912F909560FFEE
:1009300012C0F8948A8189238A838981812B8983D3
:100940008AE090E00E94F7068A81812B8A8378945E
:1009500087E390E011C0F8948A8189238A83898192
:10096000812B898381E490E00E94F7068A81812BA4
:100970008A83789485E090E0DF91CF911F910C9469
:10098000F7060F931F93CF93DF93FC011081C18172
:10099000D281F8948981812B89838A81012F0095E6
:1009A00080238A8383E090E00E94F7068981802378
:1009B00089838AE090E00E94F706C881789485E3F5
:1009C00090E00E94F7061C2381E009F480E0DF91AB
:1009D000CF911F910F910895CF92DF92EF92FF92E6
:1009E0000F931F93CF93DF931F92CDB7DEB76C01A8
:1009F000E62E08E010E0FF24F39461E09F2D9E2195
:100A000009F460E0C60149830E948E04FF0C015086
:100A1000110949810115110581F7411115C0F8949B
:100A2000D6011196ED91FC91129791818C91809550
:100A3000892381831196ED91FC91129792818C917B
:100A400080958923828378940F90DF91CF911F91B5
:100A50000F91FF90EF90DF90CF900895EF92FF926B
:100A60000F931F93CF93DF938C01C8E0D0E0F12C5C
:100A7000EE24E394C8010E94C1048111FE28EE0C0B
:100A80002197C1F78F2DDF91CF911F910F91FF908B
:100A9000EF900895CF92DF92EF92FF920F931F9302
:100AA000CF93DF931F92CDB7DEB77C01162F40E0C6
:100AB00065E579830E94EC04C12E7981D72E00E090
:100AC00010E0F60161916F0140E0C7010E94EC0463
:100AD0000F5F1F4F08301105A1F70F90DF91CF91E5
:100AE0001F910F91FF90EF90DF90CF900895FC0140
:100AF00013861586148627E030E0DF01A20FB31FAE
:100B000013961C922115310519F021503109F5CFAA
:100B100008951F93CF93DF93EC01162F60E0812F90
:100B20000E946607612F70E0FB01E458FE4FE491DC
:100B3000E883FB01E057FE4FE491F0E0EE0FFF1F6A
:100B4000EC55FE4F859194919A838983CE01DF9174
:100B5000CF911F910C947705AF92BF92CF92DF9205
:100B6000EF92FF920F931F93CF93DF931F92CDB716
:100B7000DEB75C01E62ED72EFC01858581115DC0B4
:100B8000C5010E944F04811105C0F5011386158629
:100B900014866EC040E060EFC5010E94EC0401E0E5
:100BA000F12CC12C11E0C5010E94C104682FC501C0
:100BB00069830E94C1046981613019F48130B9F4FC
:100BC00033C02F2D30E068131BC0F5018385181743
:100BD00030F4E20FF31F8381802349F402C0181719
:100BE00031F060E0193058F4F501148708C0F501C0
:100BF000EF0DF11D8381802B838361E009C0C12E3D
:100C0000F501E20FF31F8381902F90958923838351
:100C1000C5010E948E041F5F000F11F4F39401E0E0
:100C2000F7E0FF1508F0BFCF113438F0F501C386A7
:100C3000C11018C081E0858715C0F501138615869F
:100C4000148680E0EE2DFD2D20E030E0D501A20FCE
:100C5000B31F13969C9191932F5F3F4F283031051E
:100C6000A9F706C0F5018381882339F381E0EACF33
:100C70000F90DF91CF911F910F91FF90EF90DF9038
:100C8000CF90BF90AF900895DC0180E0615038F0C4
:100C9000ED91E827F0E0E859FF4F8491F7CF0895F0
:100CA0001F920F920FB60F9211242F933F938F93A1
:100CB0009F93AF93BF9380914D0190914E01A0916E
:100CC0004F01B091500130914C0123E0230F2D379B
:100CD00020F40196A11DB11D05C026E8230F029640
:100CE000A11DB11D20934C0180934D0190934E01A5
:100CF000A0934F01B0935001809151019091520106
:100D0000A0915301B09154010196A11DB11D809392
:100D1000510190935201A0935301B0935401BF919C
:100D2000AF919F918F913F912F910F900FBE0F9098
:100D30001F9018953FB7F8948091510190915201FE
:100D4000A0915301B091540126B5A89B05C02F3F37
:100D500019F00196A11DB11D3FBF6627782F892F7D
:100D60009A2F620F711D811D911D42E0660F771F42
:100D7000881F991F4A95D1F708958F929F92AF923D
:100D8000BF92CF92DF92EF92FF926B017C010E94A3
:100D90009A064B015C01C114D104E104F104F1F0A5
:100DA0000E94E5070E949A06681979098A099B0939
:100DB000683E73408105910570F321E0C21AD108A5
:100DC000E108F10888EE880E83E0981EA11CB11C92
:100DD000C114D104E104F10429F7DDCFFF90EF90B5
:100DE000DF90CF90BF90AF909F908F90089582300A
:100DF000910538F0880F991F880F991F0597019763
:100E0000F1F70895789484B5826084BD84B58160DB
:100E100084BD85B5826085BD85B5816085BDEEE602
:100E2000F0E0808181608083E1E8F0E010828081E1
:100E300082608083808181608083E0E8F0E080814F
:100E400081608083E1EBF0E0808184608083E0EB6F
:100E5000F0E0808181608083EAE7F0E08081846057
:100E600080838081826080838081816080838081B3
:100E7000806880831092C1000895833081F028F447
:100E8000813099F08230A1F008958730A9F0883040
:100E9000B9F08430D1F4809180008F7D03C08091BF
:100EA00080008F7780938000089584B58F7702C08B
:100EB00084B58F7D84BD08958091B0008F7703C085
:100EC0008091B0008F7D8093B0000895CF93DF9321
:100ED00090E0FC01E458FE4F2491FC01E057FE4FE6
:100EE0008491882349F190E0880F991FFC01E85410
:100EF000FE4FA591B49182559E4FFC01C591D491AE
:100F00009FB7611108C0F8948C91209582238C932F
:100F1000888182230AC0623051F4F8948C91322F78
:100F2000309583238C938881822B888304C0F89426
:100F30008C91822B8C939FBFDF91CF9108950F935B
:100F40001F93CF93DF931F92CDB7DEB7282F30E0EA
:100F5000F901E859FE4F8491F901E458FE4F1491CC
:100F6000F901E057FE4F04910023C9F0882321F0D6
:100F700069830E943D076981E02FF0E0EE0FFF1FBB
:100F8000E255FE4FA591B4919FB7F8948C916111F1
:100F900003C01095812301C0812B8C939FBF0F90BC
:100FA000DF91CF911F910F91089508950E9402073C
:100FB0000E94D5070E94B901C0E0D0E00E944F0313
:100FC0002097E1F30E940000F9CF08955058BB2705
:100FD000AA270ED070C161D130F066D120F031F473
:100FE0009F3F11F41EF456C10EF4E095E7FB4CC18F
:100FF000E92F72D180F3BA17620773078407950748
:1010000018F071F49EF58AC10EF4E0950B2EBA2FFC
:10101000A02D0B01B90190010C01CA01A0011124FE
:10102000FF27591B99F0593F50F4503E68F11A16AA
:10103000F040A22F232F342F4427585FF3CF46953B
:1010400037952795A795F0405395C9F77EF41F165D
:10105000BA0B620B730B840BBAF09150A1F0FF0F27
:10106000BB1F661F771F881FC2F70EC0BA0F621F13
:10107000731F841F48F4879577956795B795F79503
:101080009E3F08F0B3CF9395880F08F09927EE0F95
:10109000979587950895D4D008F481E008950CD0F1
:1010A0000AC102D140F0F9D030F021F45F3F19F0CD
:1010B000EBC0511134C1EEC00FD198F39923C9F39D
:1010C0005523B1F3951B550BBB27AA27621773074E
:1010D000840738F09F5F5F4F220F331F441FAA1F02
:1010E000A9F333D00E2E3AF0E0E830D091505040C2
:1010F000E695001CCAF729D0FE2F27D0660F771F70
:10110000881FBB1F261737074807AB07B0E809F051
:10111000BB0B802DBF01FF2793585F4F2AF09E3FE6
:10112000510568F0B1C0FBC05F3FECF3983EDCF3C3
:10113000869577956795B795F7959F5FC9F7880F5F
:10114000911D9695879597F90895E1E0660F771FB1
:10115000881FBB1F621773078407BA0720F0621B42
:10116000730B840BBA0BEE1F88F7E0950895BCD083
:1011700088F09F5790F0B92F9927B751A0F0D1F080
:10118000660F771F881F991F1AF0BA95C9F712C00A
:10119000B13081F0C3D0B1E00895C0C0672F782F7F
:1011A0008827B85F39F0B93FCCF386957795679576
:1011B000B395D9F73EF490958095709561957F4FE2
:1011C0008F4F9F4F0895E89409C097FB3EF4909588
:1011D0008095709561957F4F8F4F9F4F9923A9F010
:1011E000F92F96E9BB279395F6958795779567959F
:1011F000B795F111F8CFFAF4BB0F11F460FF1BC0E3
:101200006F5F7F4F8F4F9F4F16C0882311F096E975
:1012100011C0772321F09EE8872F762F05C0662323
:1012200071F096E8862F70E060E02AF09A95660FDC
:10123000771F881FDAF7880F9695879597F9089595
:10124000990F0008550FAA0BE0E8FEEF16161706D7
:10125000E807F907C0F012161306E407F50798F03F
:10126000621B730B840B950B39F40A2661F0232B58
:10127000242B252B21F408950A2609F4A140A695D4
:101280008FEF811D811D089597F99F6780E870E0B9
:1012900060E008959FEF80EC089500240A941616EC
:1012A000170618060906089500240A941216130654
:1012B000140605060895092E0394000C11F48823E2
:1012C00052F0BB0F40F4BF2B11F460FF04C06F5FFE
:1012D0007F4F8F4F9F4F089557FD9058440F551FD4
:1012E00059F05F3F71F04795880F97FB991F61F0A8
:1012F0009F3F79F087950895121613061406551F1F
:10130000F2CF4695F1DF08C0161617061806991F8A
:10131000F1CF86957105610508940895E894BB277F
:1013200066277727CB0197F908958ADF08F48FEFB6
:1013300008950BD0C0CFB1DF28F0B6DF18F09523A9
:1013400009F0A2CFA7CF1124EACFC6DFA0F3959F63
:10135000D1F3950F50E0551F629FF001729FBB279C
:10136000F00DB11D639FAA27F00DB11DAA1F649F48
:101370006627B00DA11D661F829F2227B00DA11DFB
:10138000621F739FB00DA11D621F839FA00D611D81
:10139000221F749F3327A00D611D231F849F600DA2
:1013A000211D822F762F6A2F11249F5750408AF0DB
:1013B000E1F088234AF0EE0FFF1FBB1F661F771F67
:1013C000881F91505040A9F79E3F510570F05CCFA7
:1013D000A6CF5F3FECF3983EDCF386957795679553
:1013E000B795F795E7959F5FC1F7FE2B880F911D85
:1013F0009695879597F90895AA1BBB1B51E107C0E5
:10140000AA1FBB1FA617B70710F0A61BB70B881F94
:10141000991F5A95A9F780959095BC01CD01089523
:10142000EE0FFF1F0590F491E02D0994F999FECF7E
:1014300092BD81BDF89A992780B50895A8E1B0E0E2
:1014400042E050E00C94390A262FF999FECF1FBADA
:1014500092BD81BD20BD0FB6F894FA9AF99A0FBEDD
:10146000019608950E94240A272F0C94250ADC0176
:10147000CB01FC01F999FECF06C0F2BDE1BDF89A9F
:10148000319600B40D9241505040B8F70895F89449
:02149000FFCF8C
:00000001FF
