:100000000C94E2000C940A010C940A010C940A016D
:100010000C940A010C940A010C940A010C940A0134
:100020000C940A010C940A010C940A010C940A0124
:100030000C940A010C940A010C940A010C940A0114
:100040000C94C9060C940A010C9485020C940A01C4
:100050000C940A010C940A010C940A010C940A01F4
:100060000C940A010C940A01005EBCE2613FDD833E
:10007000C29C7E20A3FD1F419DC3217FFCA2401E88
:100080005F01E3BD3E6082DC237D9FC1421CFEA078
:10009000E1BF5D0380DE3C62BEE0025CDF81633D68
:1000A0007C22C09E1D43A1FF4618FAA427799BC558
:1000B00084DA3866E5BB5907DB856739BAE4065848
:1000C0001947A5FB7826C49A653BD987045AB8E638
:1000D000A7F91B45C6987A24F8A6441A99C7257B28
:1000E0003A6486D85B05E7B98CD2306EEDB3510F18
:1000F0004E10F2AC2F7193CD114FADF3702ECC9208
:10010000D38D6F31B2EC0E50AFF1134DCE90722CF7
:100110006D33D18F0C52B0EE326C8ED0530DEFB1E7
:10012000F0AE4C1291CF2D73CA947628ABF51749D7
:100130000856B4EA6937D58B5709EBB536688AD4C7
:1001400095CB2977F4AA4816E9B7550B88D6346AB7
:100150002B7597C94A14F6A8742AC896154BA9F7A7
:10016000B6E80A54D7896B35000000080002010088
:100170000003040700000000000000000102040862
:100180001020408001020408102001020408102001
:10019000040404040404040402020202020203032D
:1001A00003030303000000002300260029000000D1
:1001B0000000250028002B0000000000240027007C
:1001C0002A00C30411241FBECFEFD8E0DEBFCDBF8D
:1001D00011E0A0E0B1E0E4E8F5E102C005900D9285
:1001E000A030B107D9F721E0A0E0B1E001C01D9235
:1001F000A835B207E1F711E0C4ECD1E004C02297C2
:10020000FE010E948B0AC23CD107C9F70E944F0829
:100210000C94C00A0C94000081E491E00E94C80490
:1002200069E371E081E491E00E94C30541E064E488
:1002300081E491E00C946505CF93DF9381E491E034
:100240000E94C80469E371E081E491E00E94C30563
:1002500040E06EEB81E491E00E946505CDE2D1E0E3
:1002600081E491E00E94A705899381E0C633D80715
:10027000B9F768E089E391E00E94BD0690913601EC
:10028000891721F081E08093040102C010920401DB
:1002900020912E0130E0322F222780912D01282B32
:1002A00037FF05C0319521953109D1E001C0D0E07B
:1002B00044E050E080E090E0C1E0E1E7F2E06C2F44
:1002C00070E0DB01A223B323AB2B49F06E9FD0017A
:1002D0006F9FB00D7E9FB00D11248A0F9B1FCC0F16
:1002E0004150510961F7A90124E0569547952A9597
:1002F000E1F7DD2389F02AE0249FB001259F700DEE
:10030000112420E035E0261B370B68EE73E00E94D5
:10031000750A261B370B0DC06AE0649F9001659F2C
:10032000300D11243B5F68EE73E00E94750A260FC2
:10033000371FC901DF91CF91089580917A008064C1
:1003400080937A0080917A0086FDFCCF60917800DE
:100350007091790080E090E00E945C092EEA37E21B
:100360004CE953E40E945F0826EF38E24CE95FE372
:100370000E94C80820E030E040E251E40E94120AE6
:1003800020E030E040EA54E40E9460080E94300916
:10039000CB0108959091C00095FFFCCF8093C600DB
:1003A0000895E9E1F1E0119281E0E432F807D9F72C
:1003B000109205010895EDE0F1E0A9E1B1E011929C
:1003C0001D9281E0E831F807D1F70895CF93DF93CC
:1003D0001092000161E085E00E94DF0760E085E0A7
:1003E0000E9418081092C50087E68093C40080918F
:1003F000C10088698093C1008091C20086608093AB
:10040000C2000E94DB0169E371E081E491E00E9497
:100410002506811103C081E08093030167E089E331
:1004200091E00E94BD0690914001891719F081E08A
:100430008093030180913901883219F081E0809323
:10044000030181E491E00E94C80469E371E081E462
:1004500091E00E94C30540E06EE481E491E00E94D7
:10046000650540E060E081E491E00E94650540E0C0
:1004700060E081E491E00E94650540E06FE781E47F
:1004800091E00E94650581E491E00E94C80488EC37
:1004900080937C0080917A00806880937A0081E06C
:1004A00090E00E94970AEC01909308018093070165
:1004B00080E090E00E948F0A80930201CC50D340EC
:1004C000C93ED34030F020E035E03093080120935E
:1004D0000701823010F0109202010E940C016CEFB3
:1004E00073E080E090E00E9436070E941C01909328
:1004F0000C0180930B010E949D0190930A0180934F
:1005000009017894DF91CF9108951F920F920FB651
:100510000F9211242F933F934F935F936F938F9379
:100520009F93EF93FF9380910601882321F08091A0
:10053000C60090E009C08091C6008093190181E057
:100540008093050180E090E021E030E051E04091AF
:100550000601411125C04091C00047FD0CC080310B
:1005600047E2940719F45093060105C00196F9017A
:100570003197F1F7F0CF40910601411111C0409140
:1005800005016091C600E42FF0E0E75EFE4F608356
:100590004F5F409305014B30D0F281E0809306011C
:1005A000FF91EF919F918F916F915F914F913F914B
:1005B0002F910F900FBE0F901F901895EF92FF9202
:1005C0000F931F93CF93DF931F92CDB7DEB70DE04C
:1005D00011E078018E2D801B861740F4F701819180
:1005E0007F0169830E94CA016981F4CF0F90DF9176
:1005F000CF911F910F91FF90EF900895FC018FEF25
:1006000021E3615060F09191892798E087FF03C052
:10061000880F822701C0880F9150C1F7F2CF08954B
:1006200084E680930D0180910B0190910C019093D1
:100630000E0180930F018091090190910A0190931E
:10064000100180931101809107019091080190930E
:100650001201809313018091010180931401809114
:10066000030190910401892B80931501809102016F
:10067000809316016AE08DE091E00E94FE02809373
:1006800017010895CF93F894C09105016FEF6C0F97
:1006900089E191E00E94FE02EC2FF0E0E85EFE4F5F
:1006A000908189135AC080911901893679F118F423
:1006B000873639F052C0803709F443C0833741F0A0
:1006C0004CC0C23009F049C00E9410036BE034C036
:1006D000C43009F042C080911A0190E0982F882719
:1006E00020911B01822B9C012C503340293E33402A
:1006F00020F49093080180930701609107017091A5
:10070000080181E090E00E94AB0A27C0C23029F5C1
:1007100086E780930D0181E080930E0180930F01A5
:10072000C09310018093110165E08DE091E00E947B
:10073000FE028093120166E08DE091E00E94DE02ED
:100740000CC0C33051F460911A01623030F46093F0
:10075000020180E090E00E949D0A109206010E9432
:10076000D1017894CF910895CF92DF92EF92FF92CA
:100770008091060181110E94420380910301811141
:10078000E8C00E940C0180910201811116C01092F4
:1007900001011092290110922A0110922B0110924E
:1007A0002C0110922501109226011092270110921F
:1007B000280160E085E00E94180880910401811101
:1007C000BBC080910201813009F0B6C060910B017D
:1007D00070910C0180E090E00E945C096B017C014B
:1007E000609107017091080180E090E00E945C092F
:1007F0009B01AC01C701B6010E945F08609325010F
:100800007093260180932701909328012AE037ED09
:1008100043E25DE30E94120A2091290130912A01EE
:1008200040912B0150912C010E9460086B017C01CA
:1008300020E030E04FE754E40E940E0A18166CF4F2
:1008400080E090E0AFE7B4E48093290190932A011F
:10085000A0932B01B0932C011AC020E030E0A90135
:10086000C701B6010E94C40887FD09C0C0922901D2
:10087000D0922A01E0922B01F0922C0108C0109234
:10088000290110922A0110922B0110922C0120E0D4
:1008900030E0A9016091290170912A0180912B011A
:1008A00090912C010E940E0A181624F461E085E054
:1008B0000E9418086091290170912A0180912B01F2
:1008C00090912C010E9430090E9436076091290105
:1008D00070912A0180912B0190912C010E94300986
:1008E0006C3F734021F060E085E00E941808209181
:1008F000290130912A0140912B0150912C0160E097
:1009000070E08FE794E40E945F080E9430090E9423
:10091000360720E030E040E85EE360912901709105
:100920002A0180912B0190912C010E94120A0E94B1
:1009300030096093010106C06CEF73E080E090E045
:100940000E9436070E941C0190930C0180930B01BA
:100950000FC06CEF73E080E090E00E94360780915A
:1009600000018F5F809300018C3310F00E94E6013C
:100970000E949D0190930A0180930901FF90EF90DE
:10098000DF90CF90089560E181E491E00C9402063D
:10099000FF920F931F93CF93DF93FC010081C181DE
:1009A000D281F8948981F02EF0948F2189837894F4
:1009B0001DE7115029F182E090E00E9470078881C4
:1009C0008023B9F3F8948A818F218A838981802BCF
:1009D0008983789484EF91E00E947007F89489816C
:1009E0008F21898380E590E00E94700788818023B1
:1009F00011E009F010E0789484EA91E00E94700719
:100A0000812FDF91CF911F910F91FF9008951F9338
:100A1000CF93DF93FC011081C181D281912F9095FA
:100A200060FF12C0F8948A8189238A838981812B8F
:100A300089838AE090E00E9470078A81812B8A83F3
:100A4000789487E390E011C0F8948A8189238A839F
:100A50008981812B898381E490E00E9470078A81DB
:100A6000812B8A83789485E090E0DF91CF911F916C
:100A70000C9470070F931F93CF93DF93FC011081A9
:100A8000C181D281F8948981812B89838A81012F48
:100A9000009580238A8383E090E00E94700789811B
:100AA000802389838AE090E00E947007C88178944F
:100AB00085E390E00E9470071C2381E009F480E048
:100AC000DF91CF911F910F910895CF92DF92EF9216
:100AD000FF920F931F93CF93DF931F92CDB7DEB793
:100AE0006C01E62E08E010E0FF24F39461E09F2DF6
:100AF0009E2109F460E0C60149830E940705FF0CAE
:100B00000150110949810115110581F7411115C0E5
:100B1000F894D6011196ED91FC91129791818C91E8
:100B20008095892381831196ED91FC911297928192
:100B30008C9180958923828378940F90DF91CF9157
:100B40001F910F91FF90EF90DF90CF900895EF925B
:100B5000FF920F931F93CF93DF938C01C8E0D0E0F7
:100B6000F12CEE24E394C8010E943A058111FE287D
:100B7000EE0C2197C1F78F2DDF91CF911F910F912F
:100B8000FF90EF900895CF92DF92EF92FF920F9334
:100B90001F93CF93DF931F92CDB7DEB77C01162F43
:100BA00040E065E579830E946505C12E7981D72EE5
:100BB00000E010E0F60161916F0140E0C7010E9482
:100BC00065050F5F1F4F08301105A1F70F90DF91EA
:100BD000CF911F910F91FF90EF90DF90CF900895EC
:100BE000FC0113861586148627E030E0DF01A20F92
:100BF000B31F13961C922115310519F021503109AC
:100C0000F5CF08951F93CF93DF93EC01162F60E08B
:100C1000812F0E94DF07612F70E0FB01E458FE4F37
:100C2000E491E883FB01E057FE4FE491F0E0EE0F22
:100C3000FF1FEC55FE4F859194919A838983CE01D5
:100C4000DF91CF911F910C94F005AF92BF92CF929C
:100C5000DF92EF92FF920F931F93CF93DF931F9238
:100C6000CDB7DEB75C01E62ED72EFC01858581115C
:100C70005DC0C5010E94C804811105C0F50113863D
:100C8000158614866EC040E060EFC5010E946505C0
:100C900001E0F12CC12C11E0C5010E943A05682F3A
:100CA000C50169830E943A056981613019F4813078
:100CB000B9F433C02F2D30E068131BC0F5018385D4
:100CC000181730F4E20FF31F8381802349F402C028
:100CD000181731F060E0193058F4F501148708C096
:100CE000F501EF0DF11D8381802B838361E009C045
:100CF000C12EF501E20FF31F8381902F9095892378
:100D00008383C5010E9407051F5F000F11F4F39450
:100D100001E0F7E0FF1508F0BFCF113438F0F5011E
:100D2000C386C11018C081E0858715C0F501138600
:100D30001586148680E0EE2DFD2D20E030E0D501F3
:100D4000A20FB31F13969C9191932F5F3F4F2830B2
:100D50003105A9F706C0F5018381882339F381E0C5
:100D6000EACF0F90DF91CF911F910F91FF90EF90FD
:100D7000DF90CF90BF90AF900895DC0180E061508C
:100D800038F0ED91E827F0E0E859FF4F8491F7CF74
:100D900008951F920F920FB60F9211242F933F9335
:100DA0008F939F93AF93BF93809150019091510186
:100DB000A0915201B091530130914F0123E0230FD4
:100DC0002D3720F40196A11DB11D05C026E8230F83
:100DD0000296A11DB11D20934F0180935001909365
:100DE0005101A0935201B09353018091540190910D
:100DF0005501A0915601B09157010196A11DB11D59
:100E00008093540190935501A0935601B0935701DC
:100E1000BF91AF919F918F913F912F910F900FBEF6
:100E20000F901F9018953FB7F894809154019091BE
:100E30005501A0915601B091570126B5A89B05C058
:100E40002F3F19F00196A11DB11D3FBF6627782FD6
:100E5000892F9A2F620F711D811D911D42E0660F2F
:100E6000771F881F991F4A95D1F708958F929F92F7
:100E7000AF92BF92CF92DF92EF92FF926B017C0113
:100E80000E9413074B015C01C114D104E104F10479
:100E9000F1F00E945E080E941307681979098A0917
:100EA0009B09683E73408105910570F321E0C21AE9
:100EB000D108E108F10888EE880E83E0981EA11C95
:100EC000B11CC114D104E104F10429F7DDCFFF9076
:100ED000EF90DF90CF90BF90AF909F908F9008954C
:100EE0008230910538F0880F991F880F991F059758
:100EF0000197F1F70895789484B5826084BD84B534
:100F0000816084BD85B5826085BD85B5816085BD04
:100F1000EEE6F0E0808181608083E1E8F0E010821D
:100F2000808182608083808181608083E0E8F0E05E
:100F3000808181608083E1EBF0E080818460808348
:100F4000E0EBF0E0808181608083EAE7F0E080817F
:100F500084608083808182608083808181608083DF
:100F60008081806880831092C1000895833081F071
:100F700028F4813099F08230A1F008958730A9F0EB
:100F80008830B9F08430D1F4809180008F7D03C027
:100F9000809180008F7780938000089584B58F774B
:100FA00002C084B58F7D84BD08958091B0008F7795
:100FB00003C08091B0008F7D8093B0000895CF93DF
:100FC000DF9390E0FC01E458FE4F2491FC01E057D0
:100FD000FE4F8491882349F190E0880F991FFC010E
:100FE000E854FE4FA591B49182559E4FFC01C591E6
:100FF000D4919FB7611108C0F8948C9120958223F9
:101000008C93888182230AC0623051F4F8948C91C9
:10101000322F309583238C938881822B888304C060
:10102000F8948C91822B8C939FBFDF91CF91089580
:101030000F931F93CF93DF931F92CDB7DEB7282F67
:1010400030E0F901E859FE4F8491F901E458FE4F70
:101050001491F901E057FE4F04910023C9F0882351
:1010600021F069830E94B6076981E02FF0E0EE0F5E
:10107000FF1FE255FE4FA591B4919FB7F8948C9154
:10108000611103C01095812301C0812B8C939FBFF8
:101090000F90DF91CF911F910F91089508950E94B5
:1010A0007B070E944E080E94E601C0E0D0E00E944B
:1010B000B4032097E1F30E940000F9CF089550583F
:1010C000BB27AA270ED070C161D130F066D120F0C5
:1010D00031F49F3F11F41EF456C10EF4E095E7FB86
:1010E0004CC1E92F72D180F3BA17620773078407E6
:1010F000950718F071F49EF58AC10EF4E0950B2E59
:10110000BA2FA02D0B01B90190010C01CA01A00159
:101110001124FF27591B99F0593F50F4503E68F1B4
:101120001A16F040A22F232F342F4427585FF3CFF5
:10113000469537952795A795F0405395C9F77EF4C6
:101140001F16BA0B620B730B840BBAF09150A1F00F
:10115000FF0FBB1F661F771F881FC2F70EC0BA0F95
:10116000621F731F841F48F4879577956795B7951D
:10117000F7959E3F08F0B3CF9395880F08F0992715
:10118000EE0F979587950895D4D008F481E00895DF
:101190000CD00AC102D140F0F9D030F021F45F3F09
:1011A00019F0EBC0511134C1EEC00FD198F399235F
:1011B000C9F35523B1F3951B550BBB27AA2762171B
:1011C0007307840738F09F5F5F4F220F331F441F60
:1011D000AA1FA9F333D00E2E3AF0E0E830D0915098
:1011E0005040E695001CCAF729D0FE2F27D0660F85
:1011F000771F881FBB1F261737074807AB07B0E8C4
:1012000009F0BB0B802DBF01FF2793585F4F2AF0D9
:101210009E3F510568F0B1C0FBC05F3FECF3983EC4
:10122000DCF3869577956795B795F7959F5FC9F736
:10123000880F911D9695879597F90895E1E0660FBF
:10124000771F881FBB1F621773078407BA0720F038
:10125000621B730B840BBA0BEE1F88F7E0950895A1
:10126000BCD088F09F5790F0B92F9927B751A0F0C4
:10127000D1F0660F771F881F991F1AF0BA95C9F72A
:1012800012C0B13081F0C3D0B1E00895C0C0672F63
:10129000782F8827B85F39F0B93FCCF386957795DA
:1012A0006795B395D9F73EF49095809570956195C3
:1012B0007F4F8F4F9F4F0895E89409C097FB3EF4EE
:1012C00090958095709561957F4F8F4F9F4F992393
:1012D000A9F0F92F96E9BB279395F6958795779511
:1012E0006795B795F111F8CFFAF4BB0F11F460FFD1
:1012F0001BC06F5F7F4F8F4F9F4F16C0882311F029
:1013000096E911C0772321F09EE8872F762F05C03C
:10131000662371F096E8862F70E060E02AF09A95D7
:10132000660F771F881FDAF7880F9695879597F9CC
:101330000895990F0008550FAA0BE0E8FEEF161666
:101340001706E807F907C0F012161306E407F507B9
:1013500098F0621B730B840B950B39F40A2661F02D
:10136000232B242B252B21F408950A2609F4A140D0
:10137000A6958FEF811D811D089597F99F6780E8DD
:1013800070E060E008959FEF80EC089500240A94D7
:101390001616170618060906089500240A94121650
:1013A0001306140605060895092E0394000C11F483
:1013B000882352F0BB0F40F4BF2B11F460FF04C030
:1013C0006F5F7F4F8F4F9F4F089557FD9058440F89
:1013D000551F59F05F3F71F04795880F97FB991F94
:1013E00061F09F3F79F08795089512161306140651
:1013F000551FF2CF4695F1DF08C0161617061806DE
:10140000991FF1CF86957105610508940895E894B8
:10141000BB2766277727CB0197F908958ADF08F461
:101420008FEF08950BD0C0CFB1DF28F0B6DF18F0F2
:10143000952309F0A2CFA7CF1124EACFC6DFA0F3EE
:10144000959FD1F3950F50E0551F629FF001729F59
:10145000BB27F00DB11D639FAA27F00DB11DAA1F78
:10146000649F6627B00DA11D661F829F2227B00DC5
:10147000A11D621F739FB00DA11D621F839FA00D50
:10148000611D221F749F3327A00D611D231F849FA0
:10149000600D211D822F762F6A2F11249F575040F7
:1014A0008AF0E1F088234AF0EE0FFF1FBB1F661F92
:1014B000771F881F91505040A9F79E3F510570F04B
:1014C0005CCFA6CF5F3FECF3983EDCF38695779533
:1014D0006795B795F795E7959F5FC1F7FE2B880F46
:1014E000911D9695879597F90895AA1BBB1B51E10D
:1014F00007C0AA1FBB1FA617B70710F0A61BB70B84
:10150000881F991F5A95A9F780959095BC01CD0128
:101510000895EE0FFF1F0590F491E02D0994F999BD
:10152000FECF92BD81BDF89A992780B50895A8E1B4
:10153000B0E042E050E00C94B20A262FF999FECFB9
:101540001FBA92BD81BD20BD0FB6F894FA9AF99AE0
:101550000FBE019608950E949D0A272F0C949E0AA3
:10156000DC01CB01FC01F999FECF06C0F2BDE1BD63
:10157000F89A319600B40D9241505040B8F7089552
:04158000F894FFCF0D
:00000001FF
